:10000000603702209D180100B3A00100891801008B
:100010008918010089180100891801008918010058
:100020000000000000000000000000009119010025
:100030008918010000000000291901008918010039
:10004000811B0100811B0100811B0100811B01003C
:10005000811B0100811B0100811B0100811B01002C
:10006000811B0100811B0100811B0100811B01001C
:10007000811B0100811B0100811B0100811B01000C
:10008000811B0100811B0100811B0100811B0100FC
:10009000811B0100811B0100811B0100811B0100EC
:1000A000811B0100811B0100811B0100811B0100DC
:1000B000811B0100811B0100811B0100811B0100CC
:1000C000811B0100811B0100811B0100811B0100BC
:1000D000811B0100811B0100811B0100811B0100AC
:1000E000811B0100811B0100811B0100811B01009C
:1000F000811B0100811B0100811B0100811B01008C
:10010000811B0100811B0100811B0100811B01007B
:10011000811B0100811B0100811B0100811B01006B
:10012000811B0100811B0100811B0100811B01005B
:10013000811B0100811B0100811B0100811B01004B
:10014000811B0100811B0100811B0100811B01003B
:04015000811B01000E
:10015400F0B400B581B084460C1C151C012D25DBC0
:10016400002620680434012D1ED021680434022D99
:100174001AD022680434032D16D023680434042DC5
:1001840012D0043DAE000727F619BE4304366F466D
:10019400BF1BBD469646002D05D0226804343A6044
:1001A4000437013DF7E77246E047B54401B008BCA7
:1001B400F0BC9E46704700BF002902D0B0FBF1F0AE
:1001C400704708B14FF0FF3000F03AB80029F8D07A
:1001D4000246B0FBF1F000FB11217047002902D068
:1001E40090FBF1F070470028C8BF6FF00040B8BF23
:1001F4004FF0004000F024B80029F4D0024690FBF0
:10020400F1F000FB11217047002904D0B0FBF1F29A
:1002140001FB1200704708B14FF0FF3000F010B836
:10022400002904D090FBF1F201FB12007047002872
:10023400C8BF6FF00040B8BF4FF0004000F000B8F6
:10024400704700BFD0400B00D1409C46203AD340B9
:100254001843524263469340184370479140030049
:1002640090409C46203A9340194352426346D340FF
:100274001943704781F0004102E000BF83F000435E
:1002840030B54FEA41044FEA430594EA050F08BF2D
:1002940090EA020F1FBF54EA000C55EA020C7FEAF1
:1002A400645C7FEA655C00F0E2804FEA5454D4EB6E
:1002B4005555B8BF6D420CDD2C4480EA020281EA38
:1002C400030382EA000083EA010180EA020281EA70
:1002D4000303362D88BF30BD11F0004F4FEA0131C2
:1002E4004FF4801C4CEA113102D0404261EB4101D1
:1002F40013F0004F4FEA03334CEA133302D0524257
:1003040063EB430394EA050F00F0A780A4F1010412
:10031400D5F1200E0DDB02FA0EFC22FA05F280184C
:1003240041F1000103FA0EF2801843FA05F3594132
:100334000EE0A5F120050EF1200E012A03FA0EFCB1
:1003440028BF4CF0020C43FA05F3C01851EBE371DB
:1003540001F0004507D54FF0000EDCF1000C7EEBF8
:1003640000006EEB0101B1F5801F1BD3B1F5001F36
:100374000CD349085FEA30004FEA3C0C04F1010455
:100384004FEA445212F5800F80F09A80BCF1004F7E
:1003940008BF5FEA500C50F1000041EB045141EA00
:1003A400050130BD5FEA4C0C404141EB0101013CC9
:1003B40028BFB1F5801FE9D291F0000F04BF0146B8
:1003C4000020B1FA81F308BF2033A3F10B03B3F18A
:1003D40020020CDA0C3208DD02F1140CC2F10C021A
:1003E40001FA0CF021FA02F10CE002F11402D8BF78
:1003F400C2F1200C01FA02F120FA0CFCDCBF41EA44
:100404000C019040E41AA2BF01EB0451294330BD12
:100414006FEA04041F3C1CDA0C340EDC04F11404EF
:10042400C4F1200220FA04F001FA02F340EA0300C6
:1004340021FA04F345EA030130BDC4F10C04C4F10C
:10044400200220FA02F001FA04F340EA03002946EC
:1004540030BD21FA04F0294630BD94F0000F83F436
:10046400801306BF81F480110134013D4EE77FEA19
:10047400645C18BF7FEA655C29D094EA050F08BF65
:1004840090EA020F05D054EA000C04BF1946104646
:1004940030BD91EA030F1EBF0021002030BD5FEA8A
:1004A400545C05D14000494128BF41F0004130BDB2
:1004B40014F580043CBF01F5801130BD01F0004506
:1004C40045F0FE4141F470014FF0000030BD7FEA79
:1004D400645C1ABF194610467FEA655C1CBF0B4674
:1004E400024650EA013406BF52EA033591EA030F8B
:1004F40041F4002130BD00BF90F0000F04BF002183
:10050400704730B54FF4806404F132044FF00005B5
:100514004FF0000150E700BF90F0000F04BF00212E
:10052400704730B54FF4806404F1320410F0004594
:1005340048BF40424FF000013EE700BF42004FEA8F
:10054400E2014FEA31014FEA02701FBF12F07F430C
:1005540093F07F4F81F06051704732F07F4208BFC3
:10056400704793F07F4F04BF41F40021704730B5CA
:100574004FF4607401F0004521F000411CE700BF16
:1005840050EA010208BF704730B54FF000050AE099
:1005940050EA010208BF704730B511F0004502D59A
:1005A400404261EB41014FF4806404F132045FEA9C
:1005B400915C3FF4D8AE4FF003025FEADC0C18BF45
:1005C40003325FEADC0C18BF033202EBDC02C2F137
:1005D400200300FA03FC20FA02F001FA03FE40EAC9
:1005E4000E0021FA02F11444BDE600BF70B54FF0CD
:1005F400FF0C4CF4E06C1CEA11541DBF1CEA1355AB
:1006040094EA0C0F95EA0C0F00F0DEF82C4481EA12
:10061400030621EA4C5123EA4C5350EA013518BF32
:1006240052EA033541F4801143F4801338D0A0FB1F
:1006340002CE4FF00005E1FB02E506F00042E0FBCC
:1006440003E54FF00006E1FB03569CF0000F18BFD2
:100654004EF0010EA4F1FF04B6F5007F64F540747A
:1006640004D25FEA4E0E6D4146EB060642EAC6210D
:1006740041EA55514FEAC52040EA5E504FEACE2E7A
:10068400B4F1FD0C88BFBCF5E06F1ED8BEF1004F7D
:1006940008BF5FEA500E50F1000041EB045170BDF9
:1006A40006F0004646EA010140EA020081EA03013D
:1006B400B4EB5C04C2BFD4EB0C0541EA045170BD39
:1006C40041F480114FF0000E013C00F3AB8014F1B3
:1006D400360FDEBF002001F0004170BDC4F10004FC
:1006E400203C35DA0C341BDC04F11404C4F120057D
:1006F40000FA05F320FA04F001FA05F240EA0200D8
:1007040001F0004221F0004110EBD37021FA04F60D
:1007140042EB06015EEA430E08BF20EAD37070BDC7
:10072400C4F10C04C4F1200500FA04F320FA05F026
:1007340001FA04F240EA020001F0004110EBD37028
:1007440041F100015EEA430E08BF20EAD37070BD98
:10075400C4F1200500FA05F24EEA020E20FA04F371
:1007640001FA05F243EA020321FA04F001F0004120
:1007740021FA04F220EA020000EBD3705EEA430E91
:1007840008BF20EAD37070BD94F0000F0FD101F0C0
:100794000046400041EB010111F4801F08BF013CF9
:1007A400F7D041EA060195F0000F18BF704703F037
:1007B4000046520043EB030313F4801F08BF013DBE
:1007C400F7D043EA0603704794EA0C0F0CEA13557A
:1007D40018BF95EA0C0F0CD050EA410618BF52EA34
:1007E4004306D1D181EA030101F000414FF000003A
:1007F40070BD50EA410606BF1046194652EA430648
:1008040019D094EA0C0F02D150EA013613D195EABB
:100814000C0F05D152EA03361CBF104619460AD103
:1008240081EA030101F0004141F0FE4141F470010D
:100834004FF0000070BD41F0FE4141F4780170BDFD
:1008440070B54FF0FF0C4CF4E06C1CEA11541DBF62
:100854001CEA135594EA0C0F95EA0C0F00F0A7F864
:10086400A4EB050481EA030E52EA03354FEA013191
:1008740000F088804FEA03334FF0805545EA1313A4
:1008840043EA12634FEA022245EA111545EA10656C
:100894004FEA00260EF000419D4208BF964244F103
:1008A400FD0404F5407402D25B084FEA3202B61A22
:1008B40065EB03055B084FEA32024FF480104FF4F6
:1008C400002CB6EB020E75EB030E22BFB61A75466A
:1008D40040EA0C005B084FEA3202B6EB020E75EBFD
:1008E400030E22BFB61A754640EA5C005B084FEA65
:1008F4003202B6EB020E75EB030E22BFB61A754632
:1009040040EA9C005B084FEA3202B6EB020E75EB3C
:10091400030E22BFB61A754640EADC0055EA060EFD
:1009240018D04FEA051545EA16754FEA06164FEA40
:10093400C30343EA52734FEAC2025FEA1C1CC0D1EC
:1009440011F4801F0BD141EA00014FF000004FF079
:10095400004CB6E711F4801F04BF01430020B4F13A
:10096400FD0C88BFBCF5E06F3FF6AFAEB5EB030CF2
:1009740004BFB6EB020C5FEA500C50F1000041EBEF
:10098400045170BD0EF0004E4EEA113114EB5C04BC
:10099400C2BFD4EB0C0541EA045170BD41F480118F
:1009A4004FF0000E013C90E645EA060E8DE60CEA97
:1009B400135594EA0C0F08BF95EA0C0F3FF43BAFB4
:1009C40094EA0C0F0AD150EA01347FF434AF95EA6B
:1009D4000C0F7FF425AF104619462CE795EA0C0F4F
:1009E40006D152EA03353FF4FDAE1046194622E71C
:1009F40050EA410618BF52EA43067FF4C5AE50EAF6
:100A040041047FF40DAF52EA43057FF4EBAE12E7E5
:100A14004FF0FF3C06E000BF4FF0010C02E000BFC6
:100A24004FF0010C4DF804CD4FEA410C7FEA6C5CA9
:100A34004FEA430C18BF7FEA6C5C1BD001B050EA4C
:100A4400410C0CBF52EA430C91EA030F02BF90EA37
:100A5400020F0020704710F1000F91EA030F58BFF6
:100A6400994208BF90422CBFD8176FEAE37040F058
:100A7400010070474FEA410C7FEA6C5C02D150EAF6
:100A8400013C07D14FEA430C7FEA6C5CD6D152EAB1
:100A9400033CD3D05DF8040B704700BF8446104676
:100AA40062468C461946634600E000BF01B5FFF775
:100AB400B7FF002848BF10F1000F01BD4DF808ED45
:100AC400FFF7F4FF0CBF012000205DF808FB00BF16
:100AD4004DF808EDFFF7EAFF34BF012000205DF870
:100AE40008FB00BF4DF808EDFFF7E0FF94BF0120BD
:100AF40000205DF808FB00BF4DF808EDFFF7CEFFBE
:100B040094BF012000205DF808FB00BF4DF808EDFC
:100B1400FFF7C4FF34BF012000205DF808FB00BFCD
:100B24004FEA410C7FEA6C5C02D150EA013C0AD1E5
:100B34004FEA430C7FEA6C5C02D152EA033C02D1D7
:100B44004FF0000070474FF0010070474FEA410238
:100B540012F5001215D211D56FF47873B3EB62520B
:100B640012D94FEAC12343F0004343EA505311F032
:100B7400004F23FA02F018BF404270474FF00000C4
:100B8400704750EA013005D111F0004008BF6FF002
:100B9400004070474FF00000704700BF4A0011D278
:100BA40012F5001211D20DD56FF47873B3EB6252C3
:100BB4000ED44FEAC12343F0004343EA505323FACF
:100BC40002F070474FF00000704750EA013002D144
:100BD4004FF0FF3070474FF0000070474FEA41027A
:100BE400B2F1E04324BFB3F5001CDCF1FE5C0DD987
:100BF40001F0004C4FEAC0024CEA5070B2F1004FD1
:100C040040EB830008BF20F00100704711F0804FD3
:100C140021D113F13872BCBF01F00040704741F498
:100C240080114FEA5252C2F11802C2F1200C10FA9C
:100C34000CF320FA02F018BF40F001004FEAC12380
:100C44004FEAD32303FA0CFC40EA0C0023FA02F324
:100C54004FEA4303CCE77FEA625307D150EA0133FA
:100C64001EBF4FF0FE4040F44000704701F00040CA
:100C740040F0FE4040F40000704700BF80F00040A8
:100C840002E000BF81F0004142001FBF5FEA410360
:100C940092EA030F7FEA226C7FEA236C6AD04FEA60
:100CA4001262D2EB1363C1BFD218414048404140A5
:100CB400B8BF5B42192B88BF704710F0004F40F457
:100CC400000020F07F4018BF404211F0004F41F473
:100CD400000121F07F4118BF494292EA030F3FD03F
:100CE400A2F1010241FA03FC10EB0C00C3F1200352
:100CF40001FA03F100F0004302D5494260EB4000E1
:100D0400B0F5000F13D3B0F1807F06D340084FEA4B
:100D1400310102F10102FE2A51D2B1F1004F40EB40
:100D2400C25008BF20F0010040EA030070474900A8
:100D340040EB0000013A28BFB0F5000FEDD2B0FA45
:100D440080FCACF1080CB2EB0C0200FA0CF0AABF68
:100D540000EBC25052421843BCBFD0401843704706
:100D640092F0000F81F4000106BF80F4000001320C
:100D7400013BB5E74FEA41037FEA226C18BF7FEAE3
:100D8400236C21D092EA030F04D092F0000F08BF25
:100D94000846704790EA010F1CBF0020704712F00C
:100DA4007F4F04D1400028BF40F00040704712F14B
:100DB40000723CBF00F50000704700F0004343F0B0
:100DC400FE4040F4000070477FEA226216BF0846E6
:100DD4007FEA23630146420206BF5FEA412390EAA9
:100DE400010F40F4800070474FF0000304E000BF9F
:100DF40010F0004348BF40425FEA000C08BF704750
:100E040043F0964301464FF000001CE050EA010213
:100E140008BF70474FF000030AE000BF50EA010228
:100E240008BF704711F0004302D5404261EB410115
:100E34005FEA010C02BF84460146002043F0B6433A
:100E440008BFA3F18053A3F50003BCFA8CF2083A5F
:100E5400A3EBC25310DB01FA02FC634400FA02FC68
:100E6400C2F12002BCF1004F20FA02F243EB02006F
:100E740008BF20F00100704702F1200201FA02FCD1
:100E8400C2F1200250EA4C0021FA02F243EB0200C4
:100E940008BF20EADC7070474FF0FF0C1CEAD05208
:100EA4001EBF1CEAD15392EA0C0F93EA0C0F6FD0C9
:100EB4001A4480EA010C400218BF5FEA41211ED0A7
:100EC4004FF0006343EA501043EA5111A0FB013193
:100ED4000CF00040B1F5000F3EBF490041EAD37168
:100EE4005B0040EA010062F17F02FD2A1DD8B3F1E4
:100EF400004F40EBC25008BF20F00100704790F053
:100F0400000F0CF0004C08BF49024CEA502040EAA4
:100F140051207F3AC2BFD2F1FF0340EAC25070476A
:100F240040F400004FF00003013A5DDC12F1190FA8
:100F3400DCBF00F000407047C2F10002410021FA1A
:100F440002F1C2F1200200FA02FC5FEA310040F132
:100F5400000053EA4C0308BF20EADC70704792F0AB
:100F6400000F00F0004C02BF400010F4000F013AE3
:100F7400F9D040EA0C0093F0000F01F0004C02BFDE
:100F8400490011F4000F013BF9D041EA0C018FE74D
:100F94000CEAD15392EA0C0F18BF93EA0C0F0AD053
:100FA40030F0004C18BF31F0004CD8D180EA010079
:100FB40000F00040704790F0000F17BF90F0004F12
:100FC400084691F0000F91F0004F14D092EA0C0FF4
:100FD40001D142020FD193EA0C0F03D14B0218BF87
:100FE400084608D180EA010000F0004040F0FE40CD
:100FF40040F40000704740F0FE4040F44000704769
:101004004FF0FF0C1CEAD0521EBF1CEAD15392EAE7
:101014000C0F93EA0C0F69D0A2EB030280EA010CD7
:1010240049024FEA402037D04FF0805343EA111170
:1010340043EA10130CF000408B4238BF5B0042F1CE
:101044007D024FF4000C8B4224BF5B1A40EA0C0073
:10105400B3EB510F24BFA3EB510340EA5C00B3EBA5
:10106400910F24BFA3EB910340EA9C00B3EBD10F93
:1010740024BFA3EBD10340EADC001B0118BF5FEAE5
:101084001C1CE0D1FD2A3FF650AF8B4240EBC2500E
:1010940008BF20F0010070470CF0004C4CEA5020CF
:1010A4007F32C2BFD2F1FF0340EAC250704740F41E
:1010B40000004FF00003013A37E792F0000F00F010
:1010C400004C02BF400010F4000F013AF9D040EA8E
:1010D4000C0093F0000F01F0004C02BF490011F422
:1010E400000F013BF9D041EA0C0195E70CEAD1531A
:1010F40092EA0C0F08D142027FF47DAF93EA0C0F01
:101104007FF470AF084676E793EA0C0F04D14B02E4
:101114003FF44CAF08466EE730F0004C18BF31F096
:10112400004CCAD130F000427FF45CAF31F0004390
:101134007FF43CAF5FE700BF4FF0FF3C06E000BF29
:101144004FF0010C02E000BF4FF0010C4DF804CD4C
:101154004FEA40024FEA41037FEA226C18BF7FEA5C
:10116400236C11D001B052EA530C18BF90EA010F5E
:1011740058BFB2EB030088BFC81738BF6FEAE170ED
:1011840018BF40F0010070477FEA226C02D15FEA89
:10119400402C05D17FEA236CE4D15FEA412CE1D0F5
:1011A4005DF8040B704700BF844608466146FFE7BC
:1011B4000FB5FFF7C9FF002848BF10F1000F0FBD9E
:1011C4004DF808EDFFF7F4FF0CBF012000205DF897
:1011D40008FB00BF4DF808EDFFF7EAFF34BF01201C
:1011E40000205DF808FB00BF4DF808EDFFF7E0FFB5
:1011F40094BF012000205DF808FB00BF4DF808ED06
:10120400FFF7D2FF94BF012000205DF808FB00BF68
:101214004DF808EDFFF7C8FF34BF012000205DF84A
:1012240008FB00BF4FEA40024FEA41037FEA226C09
:1012340002D15FEA402C08D17FEA236C02D15FEA35
:10124400412C02D14FF0000070474FF0010070476D
:101254004FEA4002B2F1FE4F0FD34FF09E03B3EBBF
:1012640012620DD94FEA002343F0004310F0004FFF
:1012740023FA02F018BF404270474FF00000704755
:1012840012F1610F01D1420205D110F0004008BFF4
:101294006FF0004070474FF00000704742000ED2DC
:1012A400B2F1FE4F0BD34FF09E03B3EB126209D49D
:1012B4004FEA002343F0004323FA02F070474FF053
:1012C4000000704712F1610F01D1420202D14FF0C8
:1012D400FF3070474FF00000704700BFB0FA80F055
:1012E400704700BF7BB972B90029BEBF00204FF020
:1012F400004106E008BF00281CBF6FF000414FF01A
:10130400FF30FEF79DBFADF1080C6DE904CE002956
:1013140009DB002B1ADB00F0E7FCDDF804E0DDE973
:10132400022304B07047404261EB4101002B1BDBF8
:1013340000F0DAFCDDF804E0DDE9022304B0404209
:1013440061EB4101524263EB43037047524263EB4A
:10135400430300F0C9FCDDF804E0DDE9022304B036
:10136400404261EB41017047524263EB430300F09A
:10137400BBFCDDF804E0DDE9022304B0524263EB78
:101384004303704753B94AB9002908BF00281CBF5A
:101394004FF0FF314FF0FF30FEF752BFADF1080CB4
:1013A4006DE904CE00F0A0FCDDF804E0DDE90223E1
:1013B40004B07047D0B5FFF7C1F800220B4B0646C6
:1013C4000F46FFF713F9FFF7E9FB0446FFF794F81C
:1013D4000022074BFFF70AF902460B46304639460E
:1013E400FEF74CFFFFF7DAFB2146D0BD0000F03DCD
:1013F4000000F041D0B500220B4B06460F46FFF724
:10140400F5F8FFF7CBFB0446FFF776F80022074B0D
:10141400FFF7ECF802460B4630463946FEF72EFF3E
:10142400FFF7BCFB2146D0BD0000F03D0000F041B9
:1014340030B50446A0FB02054A4303FB04225119BC
:1014440030BD10B500210446FFF7C4FE20B9204684
:10145400BDE81040FFF7AEBF04F10040FFF7AAFF5C
:10146400404261EB410110BD38B50022002304461F
:101474000D46FFF72DFB28B920462946BDE8384024
:10148400FFF7B8BF204605F10041FFF7B3FF404224
:1014940061EB410138BD2DE9F0430746081E53DADC
:1014A4007F424FF0FF3560EB4000002B04DA5242DC
:1014B4006FEA050563EB430314463E46844619462A
:1014C400002B40F0B4808442B2FA82F240D94AB18F
:1014D400C2F1200300FA02FC9440964027FA03F379
:1014E40043EA0C0C200C1FFA84FE330CBCFBF0F214
:1014F40000FB12CC02FB0EF843EA0C43984525D9B5
:10150400E31802F1FF3703D2984501D9971E23440B
:10151400A3EB0803B6B2B3FBF0F200FB123302FBF9
:101524000EFC46EA0346B4457FD9A61902F1FF3002
:1015340002D2B44500D9901E40EA074015B140429A
:1015440061EB4101BDE8F0830025AEE71746DFE714
:101554005ABB031B0121200C1FFA84FC320CB3FB81
:10156400F0FE00FB1E330EFB0CF842EA03439845E1
:1015740059D9E3180EF1FF3704D2984502D9AEF1D8
:1015840002072344A3EB0803B6B2B3FBF0F200FB5B
:10159400123302FB0CFC46EA0346B44545D9A419B0
:1015A40002F1FF30C8D2A445C4E7C2F1200394403D
:1015B40020FA03F74FEA144E904026FA03F39640BC
:1015C4000343A0B2B7FBFEF11A0C0EFB117701FB2B
:1015D40000FC42EA0742944521D9A21801F1FF37E1
:1015E40003D2944501D98F1E2244A2EB0C029BB274
:1015F400B2FBFEFC0EFB1C220CFB00F043EA024390
:1016040098420ED9E3180CF1FF3104D2984202D962
:10161400ACF1020123441B1A41EA07419BE70F4640
:10162400E3E76146F7E77746ACE7104684E7834291
:1016340057D8B3FA83F434B9834201D3BA4250D8A9
:10164400002101207AE7C4F12001A34022FA01F627
:10165400A2401E4320FA01F3A04027FA01F14FEA09
:10166400164801431FFA86FCB3FBF8FE08FB1E3044
:101674000B0C0EFB0CF943EA004399452DD9F318E2
:101684000EF1FF3004D2994502D9AEF10200334481
:10169400A3EB090389B2B3FBF8FE08FB1E330EFB70
:1016A4000CFC41EA03418C4519D971180EF1FF3342
:1016B40004D28C4502D9AEF10203314443EA00401E
:1016C400A1EB0C01A0FB0223994203D303D1A74051
:1016D400974200D20138002130E77046D8E77346BC
:1016E400ECE70021084629E7B1F1000C2DE9F047A9
:1016F4004ADA40424FF0FF356CEB4C0C002B02DA17
:10170400524263EB4303164604466146002B7ED1E6
:101714006645B2FA82F239D93AB1C2F12003914056
:101724009640944020FA03F31943370CB0B2B1FB4E
:10173400F7F307FB131100FB03FC230C43EA0143FB
:101744009C4504D9F31802D29C4588BF9B19A3EB8E
:101754000C03A4B2B3FBF7FC07FB1C3300FB0CF136
:1017640044EA0344A14204D9341902D2A14288BFF5
:10177400A419641A002124FA02F01DB1444220463F
:1017840061EB4101BDE8F0870025B7E76AB9ACEB2E
:101794000603370CB0B2B3FBF7F107FB113300FBC0
:1017A40001FC210C41EA0343CAE7C2F1200396403D
:1017B40094402CFA03F1370C0CFA02FC20FA03F3E0
:1017C400B0B243EA0C03B1FBF7FC00FB0CFE07FBD1
:1017D4001C1C190C41EA0C418E4504D9711802D223
:1017E4008E4588BF8919A1EB0E019BB2B1FBF7FCB2
:1017F40007FB1C1100FB0CF043EA0143984204D997
:10180400F31802D2984288BF9B191B1AC1E763459B
:10181400B3D8B3FA83F64EB9634501D3824203D8F1
:10182400841A6CEB030319462046A6E7C6F120048C
:10183400B34022FA04F720FA04F1B240B0401F4347
:101844002CFA04F30CFA06FC4FEA174941EA0C019E
:101854001FFA87FCB3FBF9FE09FB1E380B0C0EFBC9
:101864000CFA43EA08439A453AD9FB180EF1FF38BB
:1018740004D29A4502D9AEF102083B44A3EB0A0311
:1018840089B2B3FBF9FE09FB1E330EFB0CFC41EAE3
:1018940003418C4526D979180EF1FF3304D28C45C7
:1018A40002D9AEF10203394443EA0843A1EB0C0127
:1018B400A3FB023841459E46C44602D305D1984253
:1018C40003D2B3EB020E68EB070CB0EB0E0361EB33
:1018D4000C0101FA04F4F340F14044EA03004CE73C
:1018E400F046CBE77346DFE72DE9F04306460F46A3
:1018F4000546144608461946002B40F0A780BC4212
:10190400B2FA82F237D93AB1C2F12003904094403E
:10191400954026FA03F318434FEA144CA6B22B0C55
:10192400B0FBFCF20CFB120002FB06FE43EA004390
:101934009E451ED9E31802F1FF3703D29E4501D913
:10194400971E2344A3EB0E03ADB2B3FBFCF20CFBD6
:101954001233564345EA0345AE4275D9651902F17F
:10196400FF3002D2AE4200D9901E40EA0740BDE8E3
:10197400F0831746E6E74ABB3B1B0121200CA6B2C5
:101984002A0CB3FBF0FC00FB1C330CFB06FE42EA02
:1019940003439E4556D9E3180CF1FF3704D29E4504
:1019A40002D9ACF102072344A3EB0E03ADB2B3FB9F
:1019B400F0F200FB1233564345EA0345AE4243D9E5
:1019C400641902F1FF30D0D2A642CCE7C2F1200163
:1019D400944007FA02F327FA01F64FEA144C25FA69
:1019E40001F1A0B295400B43B6FBFCF11A0C0CFBC1
:1019F400116601FB00F742EA064297421ED9A2187B
:101A040001F1FF3603D2974201D98E1E2244D21B24
:101A14009BB2B2FBFCF70CFB1722784343EA024368
:101A240098420DD9E31807F1FF3103D2984201D946
:101A3400B91E23441B1A41EA06419FE70E46E6E716
:101A44003946F7E76746AFE710468EE7BB4256D8FC
:101A5400B3FA83F434B9BB4201D3B2424FD8002164
:101A6400012084E7C4F12005A34022FA05F027FAF7
:101A740005F826FA05F1A240184307FA04F34FEAE1
:101A8400104E194385B20B0CB8FBFEFC0EFB1C88F0
:101A94000CFB05F943EA084399452CD9C3180CF10A
:101AA400FF3704D2994502D9ACF102070344A3EBF2
:101AB400090389B2B3FBFEFC0EFB1C330CFB05F5DA
:101AC40041EA03418D4218D941180CF1FF3304D285
:101AD4008D4202D9ACF10203014443EA0740491B99
:101AE400A0FB0223994203D303D1A640964200D21D
:101AF400013800213BE76746D9E76346EDE700215B
:101B0400084634E72DE9F043164604460D46002BFB
:101B14007FD18E42B2FA82F230D93AB1C2F12003B7
:101B240095409640944020FA03F31D43300CB1B223
:101B3400B5FBF0F301FB03F700FB1355230C43EA59
:101B440005439F4204D9F31802D29F4288BF9B19D0
:101B5400DB1BB3FBF0F5694300FB1533A4B244EA85
:101B64000344A14204D9341902D2A14288BFA41962
:101B7400641A002124FA02F0BDE8F083D2B98B1B69
:101B8400350CB0B2B3FBF5F100FB01F705FB1133E3
:101B9400210C41EA03439F4204D9F31802D29F4225
:101BA40088BF9B19DB1BB3FBF5F700FB07F105FBB3
:101BB4001733D3E7C2F120039640944021FA03F788
:101BC400350C914020FA03F3B0B20B43B7FBF5F1A7
:101BD40000FB01FC05FB1177190C41EA07418C4518
:101BE40004D9711802D28C4588BF8919A1EB0C0164
:101BF4009BB2B1FBF5F705FB1711784343EA0143A8
:101C0400984204D9F31802D2984288BF9B191B1A30
:101C1400B6E78B42B0D8B3FA83F656B98B4201D3F8
:101C2400824203D8841A61EB03031D4620462946E9
:101C3400A2E7C6F12004B34022FA04F721FA04FC17
:101C4400B2401F4301FA06F320FA04F1B0404FEA10
:101C540017481943BDB2BCFBF8FE0B0C08FB1ECCA5
:101C64000EFB05F943EA0C43994539D9FB180EF1EB
:101C7400FF3C04D2994502D9AEF1020C3B44A3EBDC
:101C8400090389B2B3FBF8FE08FB1E330EFB05F50E
:101C940041EA03418D4225D979180EF1FF3304D26C
:101CA4008D4202D9AEF10203394443EA0C43491B85
:101CB400A3FB023E71459C46754602D305D198426A
:101CC40003D2B3EB020C6EEB0705B0EB0C0361EB34
:101CD400050101FA04F4F340F14044EA03004BE740
:101CE400F446CCE77346E0E72DE9F04786468C4698
:101CF4000846089E154674461946002B40F0C180DC
:101D04008542B2FA82F245D94AB1C2F1200300FAFF
:101D140002FC954094402EFA03F343EA0C0C4FEA7C
:101D2400154EA8B2230CBCFBFEF80EFB18CC08FB26
:101D340000F943EA0C43994528D9EB1808F1FF3719
:101D440004D2994502D9A8F102072B44A3EB090355
:101D5400A4B2B3FBFEFC0EFB1C330CFB00F044EA04
:101D64000344A04214D92C190CF1FF3304D2A0422D
:101D740002D9ACF102032C44241A43EA07401EB1F1
:101D8400D440002334607360BDE8F0874746DDE744
:101D94006346F1E792BB431B01214FEA154EAFB2F4
:101DA400200CB3FBFEFC0EFB1C330CFB07F840EAD3
:101DB4000343984561D9EB180CF1FF3004D29845E0
:101DC40002D9ACF102002B44A3EB0803A4B2B3FB89
:101DD400FEFC0EFB1C330CFB07F744EA0344A7424A
:101DE4004DD92C190CF1FF3304D2A74202D9ACF11E
:101DF40002032C44E41B43EA0040C0E7C2F1200381
:101E04009540944020FA03F12EFA03F34FEA154E5D
:101E14009040AFB20343B1FBFEFC0EFB1C10190C47
:101E24000CFB07F841EA0041884522D969180CF1F6
:101E3400FF3004D2884502D9ACF102002944A1EB59
:101E440008019BB2B1FBFEFC0EFB1C110CFB07F757
:101E540043EA01439F420ED9EB180CF1FF3104D23F
:101E64009F4202D9ACF102012B44DB1B41EA004141
:101E740093E76046E3E76146F7E76046A4E7634615
:101E8400B8E7834206D916B9002108467CE7C6E9BB
:101E940000E0F9E7B3FA83F78FB9834201D37245BF
:101EA40008D8BEEB020460EB030301209C461EB974
:101EB400002169E73846FAE7C6E9004CF8E7C7F1BC
:101EC400200CBB400EFA07F522FA0CF42EFA0CF1A2
:101ED400BA401C4320FA0CF3B8404FEA14490143BA
:101EE4001FFA84FEB3FBF9F809FB18300B0C08FB4E
:101EF4000EFA43EA00439A4540D9E31808F1FF304B
:101F040004D29A4502D9A8F102002344A3EB0A03A0
:101F140089B2B3FBF9F809FB183308FB0EFE41EA5A
:101F240003418E452CD9611808F1FF3304D28E4544
:101F340002D9A8F10203214443EA0040A1EB0E01B7
:101F4400A0FB02984145CE46434602D306D14D45F7
:101F540004D20138B9EB020E68EB0403002EA7D0BB
:101F6400B5EB0E0261EB030101FA0CFC22FA07F354
:101F7400F9404CEA0303C6E9003199E74046C5E756
:101F84004346D9E710F8012B11F8013B012A28BF79
:101F94009A42F7D0D01A7047034611F8012B03F880
:101FA400012B002AF9D17047034613F8012B002AAC
:101FB400FBD1181A0138704708B5C1B2024817F0AE
:101FC40025FC012008BD00BF1CBC010008B5104859
:101FD40010F008F800220F4BC3F898200122C3F830
:101FE40098200222C3F898200322C3F898200422E0
:101FF400C3F898200522C3F898200622C3F8982035
:102004000722C3F89820BDE8084000F01BB800BFC1
:10201400BD1F000000ED00E04B1C084605D0044B3A
:102024001B6803B1184701F09FB90020704700BF37
:102034004C140020024B1B6803B1184701F0C6B9C9
:102044004814002038B50F4C2578C5B90E4814F053
:10205400DCF80E4814F0D9F80D4814F0D6F80D4BFE
:102064002C221846294619F0ABF8034619F0C2F899
:10207400094A12585A60094A136001232370002048
:1020840038BD00BF0C170020A814002068140020DD
:10209400501400207C140020080000006414002068
:1020A400024B1A780AB100221A7070470C170020EC
:1020B40000B519F09FF8024B18585DF804FB00BFF7
:1020C4000800000000B519F095F8024B1B58186E73
:1020D4005DF804FB08000000F8B50C680646A30F81
:1020E400012B0F4604D00123002086F8B830F8BD38
:1020F400184BD0E901C203EAC403F72B20D800EB44
:1021040053050CEB02012A6A9AB100249445EAD8DB
:102114009142E8D953681BB997420AD13CB916E0F9
:102124009742134410D014461A46EFE71B1B636012
:102134000EE0002201201146074B00F0E5FB07E00A
:10214400BDE8F84014F085B8002CEFD11C462C6291
:102154000120CCE7F8FFFF3F1FBC0100F0B50B687E
:102164001F4E03F0605343EAD20343F08043D0E9A7
:1021740001750B6006EAC303CE18F72A3D444FEA03
:10218400D20446F8043C0DD88F4224D88D4222D97B
:1021940000EB8402136A1BB94B60116201201EE03C
:1021A4005B1AF9E70023C1E902330A614B60D0F8F6
:1021B400B4301C69944206D29C6844B99960CB60DF
:1021C400ECE72346F5E75C680CB95960F7E7BC42D5
:1021D40001D3AC42F5D3012380F8B8300020F0BD20
:1021E400F8FFFF3F2DE9F04101F10B0828F0070843
:1021F400414504460D4608D890F8B8704FB1002206
:1022040001201146134B00F07FFB00242046BDE85B
:10221400F08100F10C06304614F000F820464146E7
:1022240014F082F8044688B103680B4A291D02EAB7
:10223400C30223F0504343F00043914244F8043B6B
:1022440004D2521A6019394618F0BAFF304613F016
:10225400EBFFDBE754BC0100F8FFFF3F2DE9F84F2B
:1022640005460C4651B190F8B83053B10022012014
:102274001146374B00F048FB4FF0FF342046BDE8D1
:10228400F88F00F10C09D0E901A60F1F484613F09E
:10229400C5FF574559D30AEB0608474555D254F8AC
:1022A400043C9A0F022A05D04FF0FF34484613F03D
:1022B400BBFFE3E7DA00F7D4264E06EAC306D5F8F7
:1022C400C4303344C5F8C43054F8043C9B0017D4DC
:1022D40054F8084C3C1BA24512D8A04510D9D4F898
:1022E40000B04FEA9B73012B0AD121462846FFF721
:1022F400F3FE0028D8D02746164B03EACB031E442E
:10230400BC19A24512D8A04510D9D4F800B04FEAA0
:102314009B73012B0AD121462846FFF7DDFE0028D6
:10232400C2D00C4B03EACB031E44BC1932463946D7
:102334002846FFF713FF0028B6D0544505D344457B
:102344003EBF236823F0005323600024AEE700BFA0
:102354008ABC0100F8FFFF3F2DE9F74F02F10B049F
:1023640024F00704A24206460D460AD890F8B8B0F5
:10237400BBF1000F0AD0002201201146474B00F0A8
:10238400C3FA0024204603B0BDE8F08F19BB00F166
:102394000C07384613F042FFA8462146304613F096
:1023A400C3FF0446002842D00268002122F05043B3
:1023B40043F0004344F8043B394B204603EAC20986
:1023C400A9F104094A4618F0FBFE002D57D13846FE
:1023D40013F02AFFD6E751F8043CDFF8C49009EA69
:1023E400C308444549D94268A1F1040A00F10C0725
:1023F400816838460192009113F010FF019A0AEBAC
:1024040008039342C9D300990A449342C5D21A6877
:10241400910F0129C1D109EAC209C144A145BCD324
:10242400194630460093FFF757FE009B18B938460B
:1024340013F0FAFEA5E755F8042C594602F0784249
:1024440042EAD40245F8042C1846A4EB080218F01A
:10245400B7FEA1450ED93046A9EB04020AEB0401EC
:10246400FFF77CFE0028E2D05AF8043043F0005312
:102474004AF80430384613F0D7FE2C4682E7494622
:102484002A46A8F10403204614F043F8384613F012
:10249400CBFE29463046FFF7E1FE73E754BC01004A
:1024A400F8FFFF3F2DE9F0410D4617460446C822C8
:1024B400002118F085FE3A460021284618F080FED7
:1024C40004F10C0013F0A3FE064648B100220120DB
:1024D40011461B4B00F018FA00242046BDE8F08199
:1024E4004FF01408C4E93007C4E9015704F1A00708
:1024F4000146424638462460C4F8B47018F060FEC1
:10250400D4F8A030102203F0605343F0804343F02A
:102514000203C4F8A0303146C4F8B080281D18F076
:102524004FFE4FF080432B60A368DB0843F0C043A9
:102534002B60C4F8A850EF60A3682B61CDE700BFFF
:10254400BCBC010007B5FF2900EB010200F1070044
:1025540020F0070009D900F1CC01521A22F0070239
:1025640003B05DF804EBFFF79DBF00224FF48073C6
:102574000120CDE900131146034B00F0C5F90020FA
:1025840003B05DF804FB00BFDBBC010013B51446C7
:1025940010F0070208D00022144B1146012000F06D
:1025A400B3F9002002B010BD032908D80423CDE9F3
:1025B40000130F4B1146012000F0A6F9F1E714F0C7
:1025C400070101D00B4BE8E7FF2B06D84FF48072CC
:1025D400CDE900320A46084BECE7043B23F007023E
:1025E400211D02B0BDE81040FFF75CBF03BD010030
:1025F40036BD010066BD0100DBBC0100F8B5044630
:10260400406813460D1D8E1811F00702A5EB00005B
:1026140008D02D4B00221146012000F075F94FF02F
:10262400FF300BE0043BB54223F0070302D8A16856
:10263400994201D9254BEDE708B90020F8BD94F87B
:10264400B8300BB1224BE6E7D4F8B43065605A6871
:102654000AB102445A609A680AB102449A60DA687C
:102664000AB10244DA601B4ED4E9013119448B42A9
:1026740001D3E2D006E01A6816EAC20502D0CF1AE6
:10268400AF4209D20022124B1146012000F03CF95E
:10269400012384F8B830C2E7920F012A11D1F72D33
:1026A4000FD95A680AB102445A609A680AB10244BE
:1026B4009A60DA68D4F8B470BA4202D00AB102441B
:1026C400DA602B44D3E700BF97BD0100CBBD010006
:1026D400F9BD0100F8FFFF3F03282DE9F047064646
:1026E4008A46914698460CD9B0F5803F0AD9204BCA
:1026F40000220120114600F007F900242046BDE81D
:10270400F0870426B9F1000F02D0B8F1000F01D10F
:10271400184BEDE7BAF1000F14BF14270027B51DBD
:10272400AD00EF19384600F01FFE044608B9124BFD
:10273400DEE73A46002118F043FDBAF1000F0ED04F
:102744006019606013F063FD48B100220120114656
:102754000A4B00F0D9F8204600F038FECDE7089B7C
:10276400C4E902982361099B26606361C6E700BF40
:102774002CBE010057BE01009DBE0100CABE01006F
:102784002DE9F0410E461746044600B139B900223E
:10279400012011461F4B00F0B7F8002035E04068D7
:1027A40008B113F03BFD3046A36898472568B0FB99
:1027B400F5F202FB150504EB8505D5F81880B8F190
:1027C400000F05D10C2000F0CFFDB0B9124B06E08C
:1027D4003146E368D8F80000984758B10F4B0022FF
:1027E4000120114600F090F860680028D5D013F05D
:1027F4001BFDD2E7D8F80880E1E7C0E90067AB69C0
:102804008360A861606810B90120BDE8F08113F00D
:102814000BFDF9E7F8BE01005CBF010029BF010010
:1028240070B50E46044600B139B9002201201146A4
:10283400144B00F069F800251FE0406808B113F05C
:10284400EDFCA368304698472368B0FBF3F202FB23
:102854001300063054F820502DB960680028EAD0DF
:1028640013F0E2FCE7E73146E3682868984730B1A3
:1028740060686D6808B113F0D7FC284670BDAD6878
:10288400EAE700BF8EBF01002DE9F041044640B9DC
:1028940002460146184B012000F036F82046BDE8F8
:1028A400F081406808B113F0B9FC002604F1140764
:1028B4002368B3420BD8606820B113F0B5FC60689C
:1028C40013F0AAFC204600F081FD0120E7E757F849
:1028D400045F0DB90136EBE72369D5F808800BB125
:1028E4002868984763690BB168689847284600F0E0
:1028F4006DFD4546EDE700BFBDBF0100014B18600B
:10290400704700BF4000002008B42DE9F047164688
:102914001C220D46002104468FB00DEB02000691E7
:1029240018F04EFC234B1B689C423DD8FFF7C0FBBC
:10293400074613F07CFC00231F4A81468846FEF7B5
:1029440021FD1E4C4FF46163B0FBF4F202FB14044E
:10295400B4FBF3FA4FF47A7203FB1A44484600239B
:102964004146FEF70FFD02923C22B4FBF2F302FB58
:1029740013442021CDE90034114A534606A812F02D
:1029840031FD3A460F4806A913F00BFC25B1324637
:1029940029460D4813F005FC18A91798059113F062
:1029A4000DFC0A4813F0FDFB0FB0BDE8F04701B081
:1029B400704700BF4000002040420F0080510100DA
:1029C400E3BF0100F7BF010004C00100A2F301004E
:1029D40010B5044638B9024601460C4B0120FFF7F6
:1029E40093FF204610BD406808B100F0EFFC206959
:1029F40020B113F011FC206900F0E8FC142200213E
:102A0400204618F0DDFB0120ECE700BF12C00100F6
:102A140010B588B015F058FA044605496846FFF722
:102A2400BBFA6946204615F09BFA08B010BD00BFFA
:102A34003FC0010030B589B00D4615F045FA044693
:102A44002B46054A2021684612F0CCFC69462046F4
:102A540015F086FA09B030BD5AC0010030B589B00E
:102A64000D4615F031FA04462B46054A20216846E6
:102A740012F0B8FC6946204615F072FA09B030BD70
:102A84006DC0010030B589B00D4615F01DFA04463D
:102A94002B46054A2021684612F0A4FC69462046CC
:102AA40015F05EFA09B030BD88C0010030B589B0B8
:102AB4000D4615F009FA04462B46054A20216846BE
:102AC40012F090FC6946204615F04AFA09B030BD70
:102AD40096C0010008B5024813F063FB012008BD4D
:102AE4001CBC0100014813F05CBB00BFA3C0010083
:102AF40038B50D4604460146034813F052FBAB6853
:102B040020460133AB6038BD1CBC01002DE9F04FF9
:102B14001C46B1B0074688461546214600223A981D
:102B240007AB14F06AF80490002800F01B814FF002
:102B34000009CA460395002374E02BB9252800F048
:102B4400C3814146B847F6E76E2800F2B48057289F
:102B54000BD82E2862D81F283CD841462520B847D8
:102B6400039B414613F8010CECE758381628F4D8B7
:102B740001A252F820F000BF0D2D00005F2B0000D1
:102B84005F2B00005F2B00005F2B00005F2B000019
:102B94005F2B00005F2B00005F2B00005F2B000009
:102BA4005F2B00000D2D00000D2D0000452C0000B2
:102BB400452C0000452C0000292C00000D2D0000A0
:102BC400D92E00005F2B0000072D00005F2B0000B2
:102BD4003B2B000020380E28BFD801A252F820F069
:102BE400292C00005F2B00005F2B0000292C000023
:102BF4005F2B0000B72E00005F2B00005F2B00004E
:102C04005F2B00005F2B00005F2B0000292C0000CD
:102C14005F2B0000292C0000292C000039280CD837
:102C24002F289AD0039E324612F8010B03920028F3
:102C340083D1049831B0BDE8F08F453802288CD890
:102C4400A6EB090606F1020BBBF11F0F40F234811B
:102C5400584600F089FB0546002861D05A460021F9
:102C6400284618F0ADFA4A46731C5946284613F014
:102C740050FCE31D079A23F0070303F10804944270
:102C84006AD8D3E900234021CDE900230DEB0100EC
:102C94002A4612F0A7FB002805DD10AE16F8010B3A
:102CA400002840F00E8108AB9D423FF444AF284613
:102CB40000F08CFB3FE76F38C0B20B283FF64DAFF6
:102CC400012240F2432182400A421DD112F4026FD4
:102CD40040F0FE8004287FF440AFA6EB090606F11D
:102CE400020BBBF11F0F7FD9584600F03DFB054690
:102CF40000287DD14146384613F053FC264634461D
:102D040019E70AF1010A8DE7A6EB090606F1020BA1
:102D1400BBF11F0F09D9584600F026FB054640B900
:102D24004146384613F03DFC05E74FF0200B0DEB10
:102D34000B055A460021284618F042FA731C4A46ED
:102D44005946284613F0E5FBBAF1010F079B32DC24
:102D540004F1040B9B450AD908AB9D4202D02846D6
:102D640000F034FB5D493A9815F0FAF85DE0BAF1E9
:102D7400010F23680ED1721EA95CA8186C39C9B260
:102D84000E2907D8564A0A4112F0010202BFA95D72
:102D94000170AA5540212A460DEB010012F022FBD6
:102DA400002803DD10AC14F8010BB0B908AB9D4248
:102DB40016D15C46BFE6073424F0070404F1080B7F
:102DC4009B45C9D8D4E900234021CDE900230DEB6C
:102DD40001002A4612F006FBE2E74146B847E2E763
:102DE400284600F0F3FAE4E74FF0200B0DEB0B0557
:102DF4005A460021284618F0E3F9731C4A465946FE
:102E0400284613F086FB079B261D9E42A4D8226801
:102E140000233A98059200F045FB059A40B908ABA7
:102E24009D4202D0284600F0D1FA0023049300E723
:102E340000233A98059213F0A9FE8346FFF7B4F8ED
:102E440000F140018029059A12D90846059100F045
:102E54008BFA0599044680B94146384613F0A1FB24
:102E640008AB9D423FF44BAF284600F0AFFA46E76B
:102E7400104308BF4FF0000B10AC5B462A462046B7
:102E840012F0B0FA002804DD04F1FF3B1BF8010F37
:102E940040B908AB9D4208D110AB9C423FF42FAF20
:102EA4002046E2E74146B847F0E7284600F08EFAAC
:102EB400F2E74146252045E64FF0200B0DEB0B05CC
:102EC400CCE64146B847E9E69A46B1460123A9E66D
:102ED4009A46A7E64FF0020AA4E600BFA7C0010085
:102EE400FEBEFFFF2DE9F04186B00C4617461D4695
:102EF400DDF8308014F0E8FF042200234146064642
:102F040000F0AEFA18B9002006B0BDE8F081CDE9B2
:102F14000347002743462A460648009603A9059717
:102F2400FFF7F4FD0028EED0DDE90430984238BF05
:102F34002754E9E7C36501002DE9F0411E4686B038
:102F44000C46174614F0C0FF042200233146054600
:102F540000F086FA50B100222146284602AB13F055
:102F64004CFE38B928460F4914F0FAFF002006B089
:102F7400BDE8F0814FF00008029B3A461B1B049306
:102F840009483346009503A90394CDF81480FFF74C
:102F9400BDFD0028EAD0DDE90430984238BF04F8CA
:102FA4000080E4E7A7C00100C365010070B586B0E6
:102FB40014460D4614F088FF00230422CDE90333A0
:102FC400059321460023064600F04AFA10B9002072
:102FD40006B070BD23462A460448009603A9FFF7AD
:102FE40095FD0028F3D00598F2E700BFF52A00000C
:102FF40010B5144614F068FF10220023214600F097
:103004002FFA68B113F013F90023074AFEF7BAF94F
:103014004FF47A73C4E9000100205A43A26010BD42
:103024004FF0FF30FBE700BF40420F00014B03604D
:1030340034207047440000202DE9F0410E46144628
:10304400074600B319B322B34FF00308124DB8F189
:10305400010801D1404616E039462868FEF792FF80
:1030640098B931466868FEF78DFF70B92B7A103431
:1030740004F8083C6B7A103504F8073C95E80F0017
:1030840084E80F000120BDE8F0812035DFE7084621
:10309400F9E71046F7E700BF0000002000232DE900
:1030A400F04F8DB00546CDE90212CDE909330B93FB
:1030B40014F03AFF049038B97049284614F050FFD0
:1030C40000200DB0BDE8F08F28466D4914F010FFC4
:1030D400074668B928466B4914F00AFF074638B911
:1030E4002846694914F004FF074608B96749E4E72C
:1030F400296819B93C782CB16549DEE70129FBD16F
:103104003C7AF8E7384614F0E1FE804630B92246AE
:10311400214601205F4BFFF7F7FBD1E7038863B13A
:10312400022B02D14388012B2FD900220120114602
:10313400594BFFF7E9FB5949BFE74388012BF4D802
:103144007BBB264622463946049809AB00F022FD93
:10315400002800F08980B8F802303BB1029B002BB4
:1031640004DD039B13B1099B039A136054EA06031D
:1031740004D022463346284614F011FF284614F0A2
:10318400F1FEB0FA80F040099BE7027C7F2ACCD1A3
:10319400427C7F2AC9D113B1837C7F2BC5D1A14640
:1031A4000BE0037C7F2BCCD0BFE7039B53F82400B8
:1031B400FEF7FAFE013081440134029BA342F4DCA1
:1031C4004FF0000A09F1030929F0030904214A46D2
:1031D40053460298C0FB01236FF0010191427AEB40
:1031E400030101D22E4968E708A9284600910692F6
:1031F40014F0BFFE50EA010304460E46F2D0DDF897
:1032040020B0069A0BEB090305930BEB020306931C
:10321400039BA3F10409029B534507DC2846059947
:10322400099313F0C2FC02220A908CE759F8042F88
:1032340010460792FEF7B8FEDDE90612431CA1EB27
:103244000B01584613F065F9089B059AABEB030391
:10325400234442F82A30D9F80000FEF7A5FE0130D5
:1032640083440AF1010AD6E754EA06033FF428AF7F
:1032740022463346284614F092FE21E7E7C20100B5
:1032840012F2010008C3010011F2010019C3010088
:1032940063C301007FC301009CC30100DAC30100C2
:1032A40001C4010030B585B0D0B9D1E9005421463C
:1032B400284613F000F9024640B101211A4B197057
:1032C4001A4B18601A4B1C60012007E00146CDE937
:1032D40000540120174BFFF717FB002005B030BD49
:1032E40001281AD1D1E900308A6863B15AB19342F6
:1032F40009D002240C490C700F490B600F4B186065
:103304000F4B1A60E0E7CDE9010200220093114659
:1033140001200C4BFFF7F8FADFE70228DDD1032286
:10332400014B1A70D0E700BF0D170020D414002001
:10333400BC14002018C40100C8140020C4140020C8
:10334400C014002040C4010010B5054C2378012BA3
:1033540003D1044B186813F0B2F80023237010BD96
:103364000D170020D414002010B530B902460146D0
:10337400114B0220FFF7C8FA0120104B1C789CB1B6
:10338400012C06D1BDE810400D4B0146186813F01E
:103394009AB8022C04D1BDE810400A4B1B681847A8
:1033A400BDE8104012F0F9BE224621460220064B29
:1033B400FFF7AAFA204610BD71C401000D170020C2
:1033C400D4140020C81400209EC40100014620B972
:1033D40002460B4B0220FFF797BA0A4B1A7812B930
:1033E4001146094BF6E7012A03D1084B186813F07C
:1033F4006EB8022A02D1064B1B68184712F0CFBEE2
:10340400DAC401000D17002008C50100D4140020FF
:10341400C0140020F8B50546DDE9061613F0B2FB2A
:103424000446A0B1002701208F4270EB06070ED39B
:10343400D1F1000C60EB060794459F4107D389182E
:1034440043EB0603D4E906628E429A4104D228462D
:10345400024914F073FD0020F8BD00BFA7C00100AD
:1034640070B5044613F08EFB054690B1002601208A
:10347400964270EB03060CD3D6435B428E4273F143
:10348400000306D32B6A8B4203D8AB6A11448B42E8
:1034940004D22046024914F051FD002070BD00BF43
:1034A400A7C001002DE9FF414FF0000802A90191D6
:1034B400CDF80080054616461F4613F086FB0446E9
:1034C40090B18FB901230299039A884593410BD394
:1034D4003B463246284613F059FB0346891B0144F8
:1034E4008B421A4606D309D12846064914F026FD14
:1034F400002403E012780133002AF1D1204604B0FD
:10350400BDE8F081A7C001002DE9F0419846DDE94E
:103514000637064613F036FB28B93046134914F033
:103524000DFD002013E0D0E90654AA4278EB040E06
:10353400D0F820C0F1D2944459B9AD1A64EB080410
:103544009D42BC41E9D30120089BC3F800C0BDE8FB
:10355400F0816346816A8B421A4601D3F3D1DCE7DA
:1035640012780133002AF6D1EDE700BFA7C00100AD
:103574002DE9F04F8DB0824613F004FB89460446D2
:10358400002800F088808369C2680793C3690892A1
:103594000A93D0E90462D0F82080056B836B09920A
:1035A40019B901200DB0BDE8F08F76180DD2099A33
:1035B400B24201D2012409E05B1B06931ED0006CC9
:1035C40012F08BFFD0B100F05BFD0024334B19687F
:1035D40091B1DAF80030324A012B8CBF0023DAF8BB
:1035E400283112684846CDE903320023CDE9014A67
:1035F4000093079A0A9B88470020D3E7089BA3FB04
:1036040006730B93B8F1000F11D03A464046079960
:1036140012F0D6FD83460028D7D00322394612F093
:10362400ECFD70B139465846FEF704FDCDE74FF086
:10363400FF3342460093394643464046FEF7ECFCCE
:10364400E8E7069B2BB3ABEB080129441A46206C30
:1036540012F041FFB0FA80F14909069BA5EB080579
:103664005D4425631D44089B3A46C4E90336099B1F
:103674002046C4E905370B9BA563E3610BEB070305
:10368400A362C4F820B00B9B13F0CBFA002988D1B5
:103694009BE70121E1E707900A9097E7D014002007
:1036A400CC140020F8B5074614200C4615461E46D7
:1036B400FFF75AFE70B1084BC0E901741A68C5607F
:1036C400026006741860102220462946034B17F046
:1036D40004FA0120F8BD00BFD8140020D37D0100F6
:1036E4002DE9F04F4FF00009884616464D468BB041
:1036F40005936F4BDFF8BCA11C680490002C5CD1CF
:103704002746059B002B00F0CC80149B002B00F077
:10371400C880159B002B00F0C480002F00F0C080EF
:10372400002D41D095F800A0BAF1000F00F0BD8043
:10373400002E00F0AA802846FEF736FC012840F24D
:10374400A480BAF1280F40F0A080B6F800E0431E30
:103754000EF101029342C0F098800022691C0B46CE
:10376400724513F801CB5ED3BCF1290F40F08D8074
:10377400B6F802C0BCF1000F13D02844834280F095
:10378400848016444C48337C4A780690A3F17C002C
:1037940003287AD828336B4413F88C3C934274D1B1
:1037A4008B1C1B78002B70D1059B159A1D60149BF4
:1037B400C3F80090237C137073E004996068D4F814
:1037C40000B0FEF7DFFB60BBD4E902121023CDE9A1
:1037D40007000990CDF800A006A8CDF8188017F0CE
:1037E40024F920B1D0E902594768002F89D198F80B
:1037F40000305F2B15D1D4E902120023CDE9073341
:10380400099308F101030693CDF800A0102306A83C
:1038140017F00BF928B1D0E902594768002F7FF45B
:1038240070AF5C466AE706EB020ADFF88CB09AF8E0
:1038340010A0CDF818B0AAF17C0BBBF1030F24D86B
:103844000AF1280BEB441BF88CBCE34517D0BAF102
:103854007F0F1AD1BCF12A0F14D102F1010CF445E7
:103864000DD206EB0C0A9AF810A0BAF17F0F06D11C
:1038740091F801A0BAF17E0F01D162468B1C194662
:1038840001326CE7BCF1240FF9D00022049B1146ED
:10389400CDE900530220094BCDF80880FFF734F836
:1038A400002738460BB0BDE8F08F55467CE700BFD3
:1038B400D8140020D37D0100466649694BC5010038
:1038C40038B5054C206808B9206038BD0568FFF795
:1038D4007DFD2846F7E700BFD814002013B501A8E2
:1038E400FFF7A4FB01990246084814F078FA04464D
:1038F40040B108226021064B064817F0EEF8204636
:1039040002B010BDFFF7DCFFF9E700BFA2C501005C
:10391400DB7D0100840300200023F0B5058889B015
:10392400052DCDE90433CDE906334488039302D948
:10393400002009B0F0BD012CFAD8282204A90F46B2
:103944008DF8102000F10F06AB4203F1010220D3E1
:10395400292520326A44991C02F8105C34B31844B7
:10396400037C7F2B24D07E2BE2D1492201F120035A
:103974006B4403F8102C0F4B6022009308230E496C
:103984000DEB0300029717F050F80028D0D04068E0
:10399400CFE716F8013F7F2B06D07E2BC8D14923F1
:1039A40001F8013F1346CFE76923F9E77622DDE703
:1039B4006922DBE7DB7D0100840300200B4621B193
:1039C4008021034A683011F00DBD80F868107047FB
:1039D4004CC8010070B506461546FFF7C5FC044601
:1039E40030B91DB128460549FFF7E8FF204670BDF0
:1039F4003246002117F0E4FBF8E700BF01C40100E0
:103A040008B5074A1368013B13603BB9FFF758FF39
:103A140012F0C1FBBDE80840FFF796BC08BD00BF2B
:103A2400DC140020014B1878704700BF0E170020EB
:103A340008B5034614F0F5F908B1014A137008BD3E
:103A44000E17002070B5184D04462E6836BB01468B
:103A540011F8040BFFF726FC08B9002070BD94F898
:103A6400B400FFF7E5FF10B9FFF76EFCF5E794F833
:103A7400C4302BB13246314602200C4BFEF744FFD2
:103A840014F0C4F90028EFD0E2693AB1D4E9050191
:103A940014F0A5F910B9FFF7B3FFDEE72B68012096
:103AA40001332B60DAE700BFDC1400205AC80100A0
:103AB4002DE9F041069F05461C46CAB114F0B6F93B
:103AC40028B923462846BDE8F04114F0BEBD0128BC
:103AD40005D123462846BDE8F0410AF007BD032975
:103AE40009D82CB1064B39462046064A11F07AFC17
:103AF4000020BDE8F081002CFAD0034BF3E700BFAF
:103B0400B1C80100FBCE0100D9C801001FB5044CA7
:103B14000093134603AA0394FFF7CAFF04B010BD31
:103B2400A3F3010038B50D46144688B1884207D284
:103B3400002202201146074BFEF7E6FE284638BD58
:103B44009042FCD9002202201146034BFEF7DCFE12
:103B54002046F4E70CC9010053C9010070B505689B
:103B6400DDE906461DB9BDE8704007F065BF012DCB
:103B740003D1BDE870400AF067BF2CB1314620463E
:103B8400024B034A11F02EFC002070BD98C90100BD
:103B9400FBCE01002DE9F041164604460D461F46B2
:103BA40014F020F9024638B901460F4B0120FEF704
:103BB400ABFE0020BDE8F081A3681B684BB1012B6C
:103BC400F7D13B46324629462046BDE8F0410AF08B
:103BD4006DBE3B4632462946204614F086FDA36856
:103BE4001B68012BE6D1ECE7C7C90100212996BF68
:103BF400024B034953F82110FFF7E0BEA8B50100BA
:103C040011CA01002DE9F04F1546A9B08846039367
:103C1400834612F089FF6E882988012E38BF012659
:103C2400731E03EB41010231202905930746339BA0
:103C34000AD98800DBF80820890FFFF7CBFE339BF5
:103C4400044610B905465AE008AC4FF0010905F1E5
:103C54000F02DDF80CA0C4F800B00492039A28887F
:103C6400AAEB020290421FD806F1804604EB8902B7
:103C7400013E043A03EB86069E4276D1329B059AB6
:103C8400CBF834306B884A44002B73D14F4B214618
:103C940040461B6898470023CBF8343097F86850A7
:103CA400B5FA85F56D0924E0049911F8012F7C3AE1
:103CB4000491032A3BD8DFE802F03D513D02194646
:103CC40051F8042B0691039961B39AF801002A284C
:103CD40019D19AF8020007927E2814BF01235B6869
:103CE4003846009300230193FFF794FB079AA0B989
:103CF400002508AB9C4202D02046FFF767FB28460C
:103D040029B0BDE8F08F24280CD10023384607924F
:103D1400FFF7C8FB0028EBD0079A0023384612F0BF
:103D240035FF0246069B44F8292009F101090AF1EE
:103D3400010A93E7184619F0010F50F8081B18BF41
:103D440009F1010944F829104FEA89025968134618
:103D54002344596009F102090346E8E753F8042BA8
:103D640044F8292009F10109E1E753F8040B42F86A
:103D7400040F81E72B881D442B7C7C3B032B8AD8C2
:103D8400DFE803F01B130A02114B21461B6840466F
:103D94009847359B18607EE70E4B21461B684046CA
:103DA4009847359BC3E9000175E70B4B21461B6817
:103DB40040469847359B18606DE7084B21464046BE
:103DC4001B689847359A1060516064E784060020A8
:103DD4009006002094060020880600208C0600200F
:103DE4002DE9F04F9346F9B09DF80C320DF1E0083F
:103DF4004FF4807205468A46404600210DF1300991
:103E04000193829E17F0DCF940220021484617F006
:103E1400D7F91422002102A817F0D2F914220021A4
:103E240007A817F0CDF9BBF8000010280FD92A46CF
:103E340000210001FFF7CEFD044648B92846684931
:103E4400FFF7BCFD0025284679B0BDE8F08F444655
:103E54006FF00E07324604F110010BF10F00A7EBCF
:103E64000B07BBF800E007EB000CF44516D3BBF8D6
:103E74000200042851D92A4600210001FFF7AAFDB7
:103E8400074600284AD128465549FFF797FD44457F
:103E94003FD100253846FFF799FAD4E710F801CF4F
:103EA400ACF17C0CBCF1030F27D8DFE80CF0231A2B
:103EB4000C024FF0000C01F810CC52F8043B41F80E
:103EC400083C1031CDE74FF0010C01F810CC9446BA
:103ED4005CF8083B41F8083C526841F8042C6246FF
:103EE400EFE74FF0020C01F810CC52F804CB41F884
:103EF40008CCE6E74FF0030CE7E728463949FFF71B
:103F04005DFD44459ED000254F462046FFF75EFAEE
:103F140034E02046FFF75AFABBE74F46BBF80020CF
:103F2400019B0492029200220992BBF8022003949E
:103F3400089707922BBB07A902A8D047824638B33B
:103F440003685B6813B3002168221EA81D9117F053
:103F540037F9DAF800206C2113681DA86B2B28BFF1
:103F64006B23526812F0D5FA1DA92846FFF726FDE7
:103F7400504612F064FD00254445C6D14F4589D111
:103F840061E7849807AA02A9D047D7E71649ECE766
:103F94003946BBF800200F325A44BBF80200824570
:103FA40001D30125E8E712F8010F7C38032812D861
:103FB400DFE800F009020902886846F8040B0AF1F8
:103FC400010A1031E9E7B44688684CF8080BC86860
:103FD40070606646F3E728460449FFF7EFFCCAE73A
:103FE40001C40100E4C90100FBC9010023CA0100A6
:103FF400F0B50C460E680F790021A7B0CDE9022375
:1040040001932C9B054607932D9BCDE90411CDE923
:1040140008110A9106932EB91749FFF7CFFC002027
:1040240027B0F0BDFFB906A901A8B047044608B3FC
:1040340003685B68E3B1002168220CA80B9117F0B8
:10404400BFF822686C2113680BA86B2B28BF6B2365
:10405400526812F05EFA0BA92846FFF7AFFC20461F
:1040640012F0EDFCDBE7A06806AA01A9B047DDE782
:104074000249F1E70120D3E73BCA0100FBC9010073
:10408400002201201146014BFEF73EBC63CA010029
:104094002DE9F74F9DF8304082460E4691469846EA
:1040A4009DF834B09DF8387051F8045CC4B92946C1
:1040B4002846FDF7B7F838B13749504613F03EFFAC
:1040C400204603B0BDE8F08F49462846FDF78CF83A
:1040D40020B941462846FDF791F808B12F49ECE78D
:1040E400BBF1000F27D0002F2946284615BF4FF0FB
:1040F400004400246FF0004A4FF0FF3AFDF792F8B5
:10410400A8B949462846FDF76FF848B941462846FC
:10411400FDF774F868B9284637B1FDF799F80446F5
:1041240046F8044C0124CBE7FDF7B8F8F7E7002480
:10413400F6E75446F4E7EFB94FF0FF3B3C46BA4686
:104144005B46294628460193FDF76CF8E8B94946D1
:104154002846FDF749F850B941462846FDF74EF880
:10416400B0B9284677B1FDF76CF904468A4646E9AA
:10417400014AD7E75C464FF0004A4FF0FF3B6FF02F
:104184000043DEE7FDF716F9EFE70024A246EEE769
:104194005C46DDF804A0EAE7A0CB010078CB01007F
:1041A4002DE9F74F0546A1F108008846CDE9002323
:1041B40013F0C4FF9DF838A006460F469DF83C4016
:1041C4009DF84090BAF1000F1CD102460B46FCF753
:1041D400A7FC38B14249284613F0B0FE504603B05C
:1041E400BDE8F08F3046DDE900233946FCF77AFC60
:1041F40030B9DDE90C2330463946FCF77DFC08B1C3
:104204003849E8E794B3B9F1000F32463B463046EB
:10421400394615BF4FF0004400246FF000454FF0BD
:10422400FF35FCF77DFCE8B9DDE90023304639466B
:10423400FCF758FC70B9DDE90C2330463946FCF72D
:104244005BFC88B930463946B9F1000F07D0FCF75A
:104254007DFC044648F8084C4FF0010ABEE7FCF721
:104264009DFCF6E70024F5E72C46F3E7B9F1000FCF
:1042740025D14FF0FF3B4C464D46DA4632463B468D
:1042840030463946FCF74CFC18BBDDE900233046C8
:104294003946FCF727FC78B9DDE90C23304639466A
:1042A400FCF72AFCC0B930463946B9F1000F0DD0ED
:1042B400FDF7DAF804460D4648E90245CCE74FF02D
:1042C40000454FF0FF3B6FF0004AD7E7FDF792F847
:1042D400F0E700242546EFE75C465546ECE700BFCF
:1042E400A0CB010078CB010010B50346D0E90A4009
:1042F400241AB4EB410F04D30144D96208B102601B
:1043040010BD9868024913F019FE0020F8E700BFB9
:1043140098CC01002DE9F047B2F806A00F46BAF197
:10432400020F38BF4FF0020A0AF1090A4FEA8A0A5B
:10433400D2F818808146164651461A463846A4B02B
:104344001D46FFF7D1FF044628B3002304EB0A01FE
:104354004660836061617C60D9F83031374A9B687C
:104364002430F31A9B10534398F81920B2B9D9F8A2
:10437400F82052F8231000293AD1D8F804308021CB
:104384000093D8F800302E4A04A811F02BF84846C0
:1043940004A913F0D3FD24B0BDE8F087D9F8202197
:1043A400002AEAD00C214B43D15802EB030C00291C
:1043B400E3D0DCF8083002939CF80430CDE9000324
:1043C4004846F388D8F80820FFF70AFD0028E2D011
:1043D400636A0493A36A05933389012B22D16B6921
:1043E400049A1A606B6904336B61FC627D60D2E7E6
:1043F400D8E904CED8F80820B6F8069098F81880C2
:1044040004ABCDE90293CDE900E063463846B8F148
:10441400000F04D1FFF7F6FB0028BCD0DCE713F053
:10442400C7FDF9E7022BE0D16B69049A1A606B6946
:10443400059A5A606B690833D6E700BFB76DDBB6DF
:104444002ACE01002DE9F04F99B0824693460B9194
:104454000E9312F097FB8146D8B183690793C36921
:104464000893DAF8E830A049DB6C14AC1193DAF85D
:1044740030315B681093DAF818300F93CF238DF83E
:104484004F3000231D46069309930A9341F001011E
:104494000847CDE90700E4E79449504613F04EFD80
:1044A40002F0F1BA14F8012B914B53F82210EDE706
:1044B40094F900302078002B25DB621C119B53F803
:1044C40020309988D888182402F03F0363430B9E58
:1044D4000B9C40331C44F358934225D1A368159395
:1044E400069B14461A60D8600698159BA5EB8101BB
:1044F400436003468160103314F8012B06937C4B10
:1045040053F82210C2E700232022204616A916934E
:1045140013F036FE169A2244D0E7224612F8010B15
:1045240013F08EFE0021CEE7E368934214BF00230C
:104534006369D4E794F900302078002B13DB01344D
:10454400119B53F820209288069BC3E90044DA604B
:10455400A5EB82029A60103314F8012B0693644B86
:1045640053F8221092E700232046202216A916931E
:1045740013F006FE169B1C44E2E700220134E3E735
:1045840094F900302078002B2ADB0134119B53F876
:1045940020309E88DF88182204F03F0353430B9990
:1045A4000B9A40331A44CB58A3422AD1536814932C
:1045B4009368159355F8043D002B3BD0069B069A4F
:1045C4001C60DF60159BA5EB860653601346103311
:1045D4009660069314F8012B454B53F8221055E7C7
:1045E40000232046202216A9169313F0C9FD169B1A
:1045F4001C44CBE714F8010B13F022FE00260746F7
:10460400C9E7D368A34203D1136914935369D0E76C
:1046140015AB029314AB019302230B99009322462A
:104624004FF0FF330B98403106F02AFE0028C1D129
:10463400304932E7149B13B9159C0134CAE7069B31
:10464400069A1C60DF60159BA5EB86065360134633
:104654001033149C96600693EFE7069B53F80C4CBA
:10466400234B14F8012B53F822100FE70A9B069AE8
:104674009B6910339A4208D9A2F11003069314F8E7
:10468400012B1B4B53F8221000E76FF00302BBF819
:10469400083053430022BBF8081091421AD8DDE9D0
:1046A4000A23DA620E9A5A609468002C02F0F181AF
:1046B400136A0992D2F804B05569069314F8012BD1
:1046C4000B4B53F82210099B0A9353F8242B0E9298
:1046D4000993DBE60E990E9C49690132081D60615D
:1046E400E85804330860D6E7187100006CCB010069
:1046F40030B601005BCE010094F900302078002B25
:1047040006DA00232022204616A9169313F038FD5A
:10471400069BA3EB001353F8042C0693960053E96D
:10472400034012B1A91B13F07DFD851994B915AB93
:10473400029314ABCDE90043069A0B994FF0FF3373
:1047440052F8102C0B98403106F09AFD00283FF4E3
:104754006FAF159C14F8012BA94B53F8221095E662
:1047640094F900302078002B0BDB631C55F8042DE2
:10477400002ACDD11C46A24B14F8012B53F8221069
:1047840084E600232022204616A9169313F0F8FC91
:10479400169B2344EAE794F900302078002B08DBC9
:1047A400631C55F8042C043D904228BF1046185C45
:1047B400AEE700232022204616A9169313F0E0FC4E
:1047C400169B2344EDE7DAF8E83004F1FF38D3F818
:1047D400C80011F0E0FE064655F8047D2EB914F821
:1047E400012B874B53F8221050E6304611F0D6FEC9
:1047F4007368434507D1B368BB4228BF3B4606EB09
:104804008300C06884E70646E8E76FF00302BBF85C
:10481400083053430022BBF8081091427FF63FAFA3
:104824000E990E9C49690132081D6061E8580433F1
:104834000860F0E794F900302078002B19DB01348C
:104844001C222E46DAF830319B6802FB003BBBF891
:1048540006203AB10B9BA6EB8206D86A3146243077
:1048640013F0E0FC0A9B069A5E619C601A6202F0F7
:1048740058BC00232046202216A9169313F080FC6E
:10488400169B1C44DCE794F900302078002B19DBDC
:104894000134119B53F8207094F900302078002BD8
:1048A4001ADB0134DAF820302E1F53F8202055F893
:1048B400043C1169994219D85249504613F03EFB01
:1048C40002F0E2B800232046202216A9169313F022
:1048D40057FC169E3444DCE700232046202216A908
:1048E400169313F04DFC169B1C44DBE7063352F879
:1048F40023305A1C01D14449DFE7DAF83021116929
:10490400994201D84149D8E71C214B43916801EBF6
:10491400030BCB5CDBF8182023B19368BB4296D021
:104924003B49CAE71368F9E714F8012B344B043DFB
:1049340053F82210AAE514F8012B314B083D53F823
:104944002210A3E555F8042CA5F108031AB955F86B
:10495400082C45F80C2C14F8011B294A1D4652F862
:10496400211093E555F8042CA5F10C033AB955F838
:104974000C2C45F8142C55F8082C45F8102C14F878
:10498400011B1F4A1D4652F821107FE594F900309F
:10499400BBF80260002B207814DB0134DBF80C3008
:1049A400B04233F8102032BFDBF81030DBF814309B
:1049B400801B1B5C7C3B032B00F2E580DFE803F0EB
:1049C400170C170C00232046202216A9169313F067
:1049D400D7FB169B1C44E1E7099B53F8223045F8AA
:1049E400043B14F8012B064B53F822104EE5099BA7
:1049F40003EB820013F09FFBC5E900010835F0E7E3
:104A040030B60100F1CB010003CC010075CE0100EA
:104A1400BECB010094F900302078002B0FDA099BFB
:104A240000F07F0003EB800013F085FBC5E9000173
:104A340008356278AC4B023453F8221026E5099B02
:104A440053F8203045F8043BF3E794F90030BBF801
:104A54000260002B207814DB0134DBF80C30B04208
:104A640033F8102032BFDBF81030DBF81430801B31
:104A74001B5C7C3B032B00F28680DFE803F0190CFF
:104A8400190C00232046202216A9169313F078FB54
:104A9400169B1C44E1E755F8041C09982B1F40F8A9
:104AA400221014F8011B904A1D4652F82110EDE41F
:104AB400099B03EB8206A5F10803184613F03BFBA0
:104AC400099D45F822007160EBE794F900202378F2
:104AD400002A14DA099A03F07F0302EB8306A5F196
:104AE4000802104613F027FB099D45F82300716066
:104AF40061787D4B154653F821100234C6E455F80D
:104B0400041C09982A1F40F82310F1E794F9003097
:104B1400BBF80260002B207814DB0134B042DBF8D0
:104B24000C3034BFDBF81020DBF8142033F81030DD
:104B340028BF801B125C7C3A032A24D8DFE802F0E9
:104B4400170C170C00232046202216A9169313F0E5
:104B540017FB169B1C44E1E755F8042C099941F80E
:104B6400232014F8012B604B53F822108EE4A5F196
:104B7400080013F0E0FA099A099E02EB830246F852
:104B840023005160EDE7594987E494F90020237824
:104B9400002A12DAA5F1080013F0CDFA099A03F0FD
:104BA4007F03099E02EB830246F82300516062787A
:104BB4004D4B023453F8221068E455F8042C09993B
:104BC40041F82320F3E794F900302078002B10DB20
:104BD400631C18221C461099434B02FB00100F99CA
:104BE40042688A5845F8042B14F8012B53F8221014
:104BF4004CE400232022204616A9169313F0C0FA91
:104C0400169B2344E5E794F900302078002B12DB4F
:104C140001341822109B02FB00300F9B406818449B
:104C240013F089FAC5E900012F4B14F8012B08355C
:104C340053F822102AE400232046202216A91693B2
:104C440013F09EFA169B1C44E3E794F90030207895
:104C5400002B10DB631C1822109C55F8041D02FB6A
:104C640000401C4642680F981F4B815014F8012BDA
:104C740053F822100AE400232022204616A9169392
:104C840013F07EFA169B2344E5E794F9003020786C
:104C9400002B0EDB01341823109A0B9903FB002020
:104CA400896955F8043C42688B420CD81049FFF7D7
:104CB400F4BB00232046202216A9169313F060FAB1
:104CC400169B1C44E7E70B99C9698B4202D9094931
:104CD400FFF7E3BB0F99043D8B5014F8012B024BF3
:104CE40053F82210FFF7D2BB30B6010086CE010084
:104CF40040CC01005ECC010094F900302078002BF8
:104D040016DB631C18221099083D02FB00100F9952
:104D1400426828468C1813F00EFA0F9EB05061605A
:104D24001C46B74B14F8012B53F82210FFF7AEBB07
:104D340000232022204616A9169313F021FA169B6D
:104D44002344DFE794F90030002B27DB013494F986
:104D540000302078002B2BDB013455F8042C079FFE
:104D6400131D2CBF012100211B1841F100019F429A
:104D7400089BA5F1040673EB0101C2F08782D9F800
:104D840020301044184413F0DEF945F8040C14F8EC
:104D9400012B9B4B53F82210FFF778BB00232046CE
:104DA400202216A9169313F0EBF9169E3444CEE78D
:104DB40000232046202216A9169313F0E1F9169B2E
:104DC4001C44CAE794F90030002B2CDB013494F91D
:104DD40000302078002B30DB013455F8042C079F79
:104DE40012F108032CBF012100211B1841F100011D
:104DF4009F42089BA5F1040673EB0101C2F04682B1
:104E0400D9F82030104419184F0720D11A584B688C
:104E140045F8042C45F8043B14F8012B784B53F85F
:104E24002210FFF733BB00232046202216A9169335
:104E340013F0A6F9169E3444C9E700232046202225
:104E440016A9169313F09CF9169B1C44C5E78E070C
:104E540006D11B5816934B681793DDE91623D7E741
:104E6400CA070CD41B5AADF858304B88ADF85A30E9
:104E74008B88ADF85C30CB88ADF85E30EDE7185820
:104E8400496816AA03C2E8E794F90030002B25DB31
:104E9400013494F900302078002B29DB013455F8D3
:104EA400042C079F531C2CBF012100211B1841F126
:104EB40000019F42089BA5F1040673EB0101C2F0B7
:104EC400E581D9F8203003449B5645F8043C14F896
:104ED400012B4B4B53F82210FFF7D8BA002320467E
:104EE400202216A9169313F04BF9169E3444D0E7EA
:104EF40000232046202216A9169313F041F9169B8D
:104F04001C44CCE794F90030002B25DB013494F9E0
:104F140000302078002B29DB013455F8042C079F3E
:104F2400531C2CBF012100211B1841F100019F4299
:104F3400089BA5F1040673EB0101C2F0A781D9F81F
:104F4400203003449B5C45F8043C14F8012B2C4BA3
:104F540053F82210FFF79ABA00232046202216A9FC
:104F6400169313F00DF9169E3444D0E7002320461F
:104F7400202216A9169313F003F9169B1C44CCE7C0
:104F840094F90030002B27DB013494F900302078A9
:104F9400002B2BDB013455F8042C079F931C2CBFEA
:104FA400012100211B1841F100019F42089BA5F13A
:104FB400040673EB0101C2F06981D9F82030104472
:104FC400184413F021F945F8040C14F8012B0C4B88
:104FD40053F82210FFF75ABA00232046202216A9BC
:104FE400169313F0CDF8169E3444CEE700232046E2
:104FF400202216A9169313F0C3F8169B1C44CAE783
:1050040030B6010094F90030002B28DB013494F908
:1050140000302078002B2CDB013455F8042C079F3A
:10502400931C2CBF012100211B1841F100019F4258
:10503400089BA5F1040673EB0101C2F02781D9F89E
:1050440020301044184413F0DFF880B245F8040C03
:1050540014F8012BB24B53F82210FFF717BA0023B0
:105064002046202216A9169313F08AF8169E34447B
:10507400CDE700232046202216A9169313F080F8CA
:10508400169B1C44C9E794F90030002B28DB01343B
:1050940094F900302078002B2CDB013455F8042CD3
:1050A400079F531C2CBF012100211B1841F1000153
:1050B4009F42089BA5F1040673EB0101C2F0E68050
:1050C400D9F8203003449B5645F8043CDB1745F8D7
:1050D400043B14F8012B924B53F82210FFF7D6B976
:1050E40000232046202216A9169313F049F8169E91
:1050F4003444CDE700232046202216A9169313F04A
:105104003FF8169B1C44C9E794F90030002B28DBB8
:10511400013494F900302078002B2CDB0134002773
:1051240055F8042CDDF81CC0531C47F100011B1872
:1051340041F100019C45089BA5F1040673EB0101B4
:10514400C2F0A480D9F8203003449B5C45F8043CA9
:1051540045F8047B14F8012B714B53F82210FFF728
:1051640095B900232046202216A9169313F008F8B7
:10517400169E3444CDE700232046202216A9169318
:1051840012F0FEFF169B1C44C9E794F90030002B73
:105194002ADB013494F900302078002B2EDB013413
:1051A40055F8042C079F931C2CBF012100211B18C8
:1051B40041F100019F42089BA5F1040673EB010134
:1051C400C2F06480D9F820301044184413F01CF85D
:1051D40045F8040CC01745F8040B14F8012B504B88
:1051E40053F82210FFF752B900232046202216A9B3
:1051F400169312F0C5FF169E3444CBE700232046D5
:10520400202216A9169312F0BBFF169B1C44C7E775
:1052140094F90030002B2BDB013494F90030207812
:10522400002B2FDB0134002155F8042CDDF81CC0C1
:10523400931C41F100071B1847F100079C45089B8C
:10524400A5F1040673EB0707C2F02080D9F82030DB
:105254001044184412F0D8FF80B245F8040C45F805
:10526400041B14F8012B2E4B53F82210FFF70EB930
:1052740000232046202216A9169312F081FF169EC1
:105284003444CAE700232046202216A9169312F0BC
:1052940077FF169B1C44C6E794F90030002B2ADBE9
:1052A400013494F900302078002B2EDB013455F8BA
:1052B400042C079F131D2CBF012100211B1841F151
:1052C40000019F42089BA5F1040673EB0101C1F0A4
:1052D400DD87D9F820301044184412F034FF45F823
:1052E400040CC01745F8040B14F8012B0C4B53F8AD
:1052F4002210FFF7CBB800232046202216A91693CC
:1053040012F03EFF169E3444CBE7002320462022B1
:1053140016A9169312F034FF169B1C44C7E700BF6E
:1053240030B6010094F90030002B2ADB013494F9E3
:1053340000302078002B2EDB0134002155F8042C9A
:10534400DDF81CC0131D41F100071B1847F10007CD
:105354009C45089BA5F1040673EB0707C1F09687EB
:10536400D9F820301044184412F0EDFE45F8040C2E
:1053740045F8041B14F8012BC04B53F82210FFF717
:1053840085B800232046202216A9169312F0F8FEB1
:10539400169E3444CBE700232046202216A91693F8
:1053A40012F0EEFE169B1C44C7E794F90030002B64
:1053B40029DB013494F900302078002B2DDB0134F3
:1053C40055F8082C079F131D2CBF012100211B1821
:1053D40041F100019F42089BA5F1080673EB01010E
:1053E400C1F054871044D9F8202055F8043C111812
:1053F4008F071CD1135014F8012BA04B354653F8DA
:105404002210FFF743B800232046202216A9169342
:1054140012F0B6FE169E3444CCE700232046202228
:1054240016A9169312F0ACFE169B1C44C8E7CD07D0
:1054340004D41352C3F30F434B80DCE71354C3F378
:1054440007224A70C3F30742C3F307638A70CB7021
:10545400D1E794F90030002B2CDB013494F90020BF
:105464002378002A30DB1846013455F80C2C079FAA
:1054740012F108032CBF012100211B1841F1000186
:105484009F42089BA5F10C0673EB0101C1F0FE8657
:105494008318A5F1080012F04EFED9F820203546F5
:1054A400D718D050796014F8012B744B53F822109C
:1054B400FEF7ECBF00232046202216A9169312F013
:1054C4005FFE169E3444C9E700232046202216A915
:1054D400169312F055FE169B1C44C6E794F900304F
:1054E40014F8017C002B29DB013494F90030207876
:1054F400002B2DDB01343A2F4FF0000355F8041C28
:1055040055F8082CA5F108062CD1551C079F43F12A
:1055140000032D1843F10003AF42089D75EB03030C
:10552400C1F0B486D9F820300344995414F8012BFF
:10553400524B354653F82210FEF7A8BF00232046ED
:10554400202216A9169312F01BFE169E3444CCE7B3
:1055540000232046202216A9169312F011FE169B52
:105564001C44C8E7951C079F43F100032D1843F121
:105574000003AF42089D75EB0303C1F08786D9F899
:105584002030104419541A18C1F307215170CDE783
:1055940094F9003014F8017C002B2CDB013494F9CD
:1055A40000202378002A30DB0134A5F1080012F032
:1055B400C2FD3C2F4FF0000255F80C1CA5F10C065F
:1055C4002ED14D1C079F42F10002ED1842F100025A
:1055D400AF42089D75EB0202C1F05886D9F820202D
:1055E4001A44505414F8012B244B354653F8221016
:1055F400FEF74CBFCCE700232046202216A91693C1
:1056040012F0BEFD169E3444C9E700232022204632
:1056140016A9169312F0B4FD169A03461444C4E76F
:105624003D2F15D18D1C079F42F10002ED1842F168
:105634000002AF42089D75EB0202C1F027861944AF
:10564400D9F8203058545A18C0F307205070C9E7CD
:105654000D1D079F42F10002ED1842F10002AF4216
:10566400089D75EB0202C1F01186D9F820200B4485
:10567400D1188F0704D1D050B4E700BF30B6010071
:10568400CD0704D4D052C0F30F404880AAE7D054C9
:10569400C0F307234B70C0F30743C0F307608B705C
:1056A400C8709FE794F90030002B0CDB631C1C4688
:1056B400D9F81020CB4B45F8042B14F8012B53F8E0
:1056C4002210FEF7E3BE00232022204616A91693DB
:1056D40012F056FD169B2344E9E794F90030D9F8FB
:1056E4001060002B11DB0134504655F8041C11F0F6
:1056F400A4FAA0B94FF0FF3345F8043C14F8012B89
:10570400B84B53F82210FEF7C1BE002320462022D6
:1057140016A9169312F034FD169B1C44E4E745F8D1
:10572400046CD9F818300793D9F81C300893E5E7CE
:1057340094F900302078002B0EDB430648BF60F05C
:105744007F00631C1C4645F8040B14F8012BA54B81
:1057540053F82210FEF79ABE002320221693204607
:10576400012316A912F00CFD169B2344EAE794F9D1
:1057740000302078002B12DB10F040011CBF4FF0EA
:10578400FF3160F07F00631C1C46C5E90001954BA6
:1057940014F8012B083553F82210FEF777BE0023C6
:1057A400402216932046012316A912F0E9FC169B09
:1057B4002344E9E723462A1D211D013D13F8010B6B
:1057C4008B4205F8010FF9D12179864B154653F820
:1057D40021100534FEF75ABE234605F1080204F1F0
:1057E4000801013D13F8010B8B4205F8010FF9D1B3
:1057F400217A7C4B154653F821100934FEF746BE36
:1058040055F8043CB3FA83F35B0945F8043C14F8F7
:10581400012B744B53F82210FEF738BE55E90223CE
:105824009F1A7B427B4145F8083C14F8012B6D4BD1
:10583400043D53F82210FEF729BE55E902239B1AB2
:1058440018BF012345F8083C14F8012B654B043DAF
:1058540053F82210FEF71ABE55E902239342D4BF2F
:105864000023012345F8083C14F8012B5D4B043D4B
:1058740053F82210FEF70ABE55E90223934294BF5F
:105884000023012345F8083C14F8012B554B043D33
:1058940053F82210FEF7FABD55E902239342ACBF38
:1058A4000023012345F8083C14F8012B4D4B043D1B
:1058B40053F82210FEF7EABD55E9022393422CBFA8
:1058C4000023012345F8083C14F8012B454B043D03
:1058D40053F82210FEF7DABD55E902239342B4BF10
:1058E4000023012345F8083C14F8012B3D4B043DEB
:1058F40053F82210FEF7CABD55E90223934234BF80
:105904000023012345F8083C14F8012B354B043DD2
:1059140053F82210FEF7BABD55E902239342CCBFD7
:105924000023012345F8083C14F8012B2D4B043DBA
:1059340053F82210FEF7AABD55E9022393428CBF07
:105944000023012345F8083C14F8012B254B043DA2
:1059540053F82210FEF79ABDA5F1080012F0EBFBF4
:1059640008430CBF0123002345F8083C14F8012B1D
:105974001C4B043D53F82210FEF788BDA5F1080026
:1059840012F0D9FB0246A5F110000B4612F0D3FB2E
:105994008B4208BF82420CBF0123002345F8103C10
:1059A40014F8012B0F4B0C3D53F82210FEF76EBD7B
:1059B400A5F1080012F0BFFB0346A5F110000A464A
:1059C40012F0B9FB8A4208BF834214BF01210021AF
:1059D40045F8101C14F8012B024B0C3D53F822100F
:1059E400FEF754BD30B60100A5F1080012F0A3FB88
:1059F4000246A5F110000B4612F09DFB904299411E
:105A0400B4BF0123002345F8103C14F8012BD64BF6
:105A14000C3D53F82210FEF739BDA5F1080012F031
:105A24008AFB0246A5F110000B4612F084FB90425B
:105A3400994134BF0123002345F8103C14F8012B8D
:105A4400C94B0C3D53F82210FEF720BDA5F1080008
:105A540012F071FB0246A5F110000B4612F06BFB2D
:105A6400824273EB0101B4BF0123002345F8103CCB
:105A740014F8012BBC4B0C3D53F82210FEF706BD65
:105A8400A5F1080012F057FB0246A5F110000B46E1
:105A940012F051FB824273EB010134BF0123002356
:105AA40045F8103C14F8012BAF4B0C3D53F8221071
:105AB400FEF7ECBCA5F1080012F03DFB0246A5F18F
:105AC40010000B4612F037FB824273EB0101ACBFAE
:105AD4000123002345F8103C14F8012BA24B0C3D84
