:10000000B010002005070000B53F0000F106000019
:10001000F1060000F1060000F1060000F106000004
:10002000000000000000000000000000F9070000D0
:10003000F10600000000000091070000F10600003A
:10004000C1090000C1090000C1090000C109000088
:10005000C1090000C1090000C1090000C109000078
:10006000C1090000C1090000C1090000C109000068
:10007000C1090000C1090000C1090000C109000058
:10008000C1090000C1090000C1090000C109000048
:10009000C1090000C1090000C1090000C109000038
:1000A000C1090000C1090000C1090000C109000028
:1000B000C1090000C1090000C1090000C109000018
:1000C000C1090000C1090000C1090000C109000008
:1000D000C1090000C1090000C1090000C1090000F8
:1000E000C1090000C1090000C1090000C1090000E8
:1000F000C1090000C1090000C1090000C1090000D8
:10010000C1090000C1090000C1090000C1090000C7
:10011000C1090000C1090000C1090000C1090000B7
:10012000C1090000C1090000C1090000C1090000A7
:10013000C1090000C1090000C1090000C109000097
:10014000C1090000C1090000C1090000C109000087
:04015000C1090000E1
:1001540008B50349034803F0EFFA002008BD00BFC7
:10016400D44C0000DE4C0000014B1B68184700BF54
:100174000000002030B585B004460D461022002151
:10018400684604F09BFB02238DF80230044B2A4698
:1001940021466846019303F0E1FA05B030BD00BF83
:1001A4006D010000014B1860704700BF0000002083
:1001B40080B505460E461746984603F00BF90346EC
:1001C40004F084FB0446DFF81890424649F80030F6
:1001D40039463046A84754F8090000F0A9FA00BF90
:1001E400080000002DE9F047058B044628079046D7
:1001F40011D4022905F0070540F0CD80204603F014
:10020400F7FD78B10138218B042811D8DFE800F01C
:10021400C3106D85950001290CBF45F0100545F00C
:100224002005258388F31188BFF36F8FBDE8F0871D
:1002340001F0070AAA4500F0A6800027B9463E4609
:10024400A368002B00F0BD8041F00801218388F3EE
:100254001188BFF36F8FA168002900F0BB800D687F
:10026400002900F0B780334652462046D1F8048076
:10027400C047002D76D02B6829461D46F0E701F0D3
:1002840007035A1F012A1BD8002221F00701062B5D
:10029400276889B2C4E9002209D13B4603E0628B96
:1002A400013262831B68002BF9D141F00201204620
:1002B400218303F09DFD00287BD041F0200177E0ED
:1002C400042B0AD121F0070189B22046218303F0CF
:1002D4008FFD10B141F020012183218B01F0070A29
:1002E400AA4550D00027B946AAE7236921F007019F
:1002F40041F00601062DD3F8009021832DD1B9F1E8
:10030400000F40D041F00801218388F31188BFF326
:100314006F8F20463949C84729E021F00701236936
:1003240041F0040189B2042DD3F804902183E6D06E
:1003340000274FF0040A3E4682E721F007012369B3
:1003440041F0050189B2052DD3F808902183D6D058
:1003540000274FF0050A3E4672E700274FF0060AD1
:100364003E466DE72B4687E7B9F1000FD1D14FF038
:100374002003EFF3118883F31288BFF36F8F238B6D
:1003840023F008032383258BEA062ED525F01003DA
:10039400238305F007056669218B002EBFF66FAF36
:1003A40000232768C4E9003321F0070141F001016B
:1003B4002183218B4FF0000901F0070AAA457FF43D
:1003C4003FAF002F9BD041F00801218388F31188AF
:1003D400BFF36F8F002FC7D03D683946334652466E
:1003E400204603F031FD2F46F4E7AB067FF51AAF44
:1003F40025F02003238305F00705FFE6793E00007E
:10040400014B036000207047A84B000030BFFFF78A
:10041400FDBF00BF2DE9F04105460B4EDFF82C80EF
:10042400324606EB0807CC1B2046094904F039FA8A
:10043400A01942460021083C04F040FA2C6707F159
:100444000800BDE8F08100BF0000000004000000C7
:100454009C4B0000044B99685869884203D00349B7
:100464004FF080520A6070473403002004ED00E02E
:10047400154B9A6A12F0007F9A6A14BF1E201D2041
:1004840012F0807F9A6A18BF1F2012F4801F9A6AA4
:1004940018BF022012F4002F9A6A18BF212012F408
:1004A400802F9A6A18BF222012F4003F9A6A18BF5C
:1004B400232012F4803F9A6A18BF24206FEA024274
:1004C4006FEA12429A62704700ED00E010B5194BD2
:1004D4000246986A9C6A10F4805F14BF17201620A5
:1004E40014F4006F9C6A18BF1820A40509D5986BF2
:1004F400986A000404D51AB19A6A22F400429A62F6
:1005040019200C4B9A6A12F4806F9A6A18BF1A2049
:10051400D2050CD49B6A13F4005F18BF1C20054A53
:10052400936A43F47F43936200230B7010BD1B2036
:10053400F5E700BF00ED00E010B51C4B0246986AD9
:100544009C6A10F0100F14BF1120102014F0080F33
:100554009C6A18BF1220A40709D5586B986A000634
:1005640004D51AB19A6A22F080029A6213200F4BC2
:100574009A6A12F0010F9A6A18BF142012F0200F21
:100584009A6A18BF1520D40658BF9B6A074B9A6A0B
:10059400920642BF5A6A22F400525A629A6A42F0A0
:1005A400FF029A6200230B7010BD00BF00ED00E053
:1005B400F0B5474B04465B6800258BB0C3F30803D2
:1005C40085F31188BFF36F8F02F07F40B0F17F4F46
:1005D40011D102F00C0008280DD010074CBF0C46B6
:1005E40001250022033B8DF80720032B05D8DFE803
:1005F40003F02462665F2C46F3E700239DF807208E
:10060400CAB902AE04F12007324620686168083492
:1006140003C2BC421646F7D1099A002D53D0C2F347
:10062400080121B96FEA52226FEA42220992184660
:1006340002A903F0B7FC0BB0F0BD254BDA6A9107B1
:10064400DBD4DA6A002AD8DBDA6A5200D5D55A69D3
:10065400A16942F480725A61BFF34F8FBFF36F8F69
:100664005A6931F8021C22F480725A61BFF34F8F29
:10067400BFF36F8F4DF60272914209D09A6AD2B2DB
:1006840042B101200DF10701FFF756FF0346B5E71C
:100694002368B3E79A6A12F47F4F05D001200DF165
:1006A4000701FFF713FFF1E79B6AB3F5803FA4D37B
:1006B400FFF7DEFEEAE700200DF10701E4E7002082
:1006C4000DF10701EDE722F4FF7222F00102ADE71C
:1006D40000ED00E0044B5A6942F010025A615A6975
:1006E40042F480625A61704700ED00E0EFF3088045
:1006F400EFF3098101B57246FFF75AFF01BD00BF50
:1007040000F02AFC202080F3118808484FF400618F
:10071400401880F30988EFF314800221084380F322
:100724001488BFF36F8F00F0A7F800007003002057
:10073400084B9B6883420BD1EFF3058343B1064B0F
:100744005A6842F080525A605A6A22F400425A624D
:1007540003F0F0BF3403002000ED00E06FF00A0165
:10076400084A93689967084958674B6843F080536F
:100774004B60002383F31188BFF36F8F9368986FE6
:10078400704700BF3403002000ED00E016498A687A
:100794004FF030001044EFF3098C80E8F01F202064
:1007A40080F31288BFF36F8F104F4FF000664A69D1
:1007B4008A603E604FF07004141920680C4C20606D
:1007C400506F0023536780F3118802F1300090E8E2
:1007D400F01F8CF3098802F1000004B503F0F3FB69
:1007E400BDE80440704700003403002004ED00E03D
:1007F400100200201EF0040F0CBFEFF30880EFF38B
:100804000980816911F8021C0229FFD001B503F0A7
:10081400CBFB01BD40B2002807DB01234109034A99
:1008240000F01F00834042F82130704700E100E0EF
:10083400054B420953F82220012300F01F0003FA5C
:1008440000F01040704700BF00E100E040B2002813
:1008540001F10101ACBF00F16040064B4FEA4111C8
:10086400C9B2ABBF00F5614000F00F0080F800137F
:100874001954704714ED00E00F4A08B50F4B22F0ED
:100884007F029A60BFF34F8FBFF36F8FD3F8882036
:1008940022F47002C3F88820EFF3148323F00403D6
:1008A40083F31488BFF36F8F02F0CAF902F0E4FDFA
:1008B40000F078F802F00EFA0000000000ED00E00D
:1008C40042F8203C009B0B4942F81C3C019B21F060
:1008D400010142F8183C029B42F8081C42F8143CFF
:1008E4004FF0807342F8043C0023203A02654367CA
:1008F400704700BFB50100000A4B046F98600A4BB3
:100904001C60036E83F30B88104681F30988002171
:1009140063B681F31188BFF36F8F00220023FFF7C2
:1009240047FC00BF340300201002002001491022BC
:100934000A60704710ED00E072B6404080F3118801
:10094400BFF36F8F01B500F0C3FA00280AD0BFF3DC
:100954004F8F30BF00BF00BF00BF00BF00BF00BF4C
:1009640000BF00BFBDE8014062B6BFF36F8F7047A0
:1009740072B6494081F3118801B500F0A9FA002844
:100984000AD0BFF34F8F20BF00BF00BF00BF00BF1E
:1009940000BF00BF00BF00BFBDE8014080F3118865
:1009A40062B67047002320210348C2180133452B47
:1009B40082F80013F9D1704700E100E001B5EFF3CC
:1009C4000580A0F110004FEAC0000449014409C9A0
:1009D4009847BDE8014002490847000074490000F7
:1009E400590400001FB5094C094A2346012109484E
:1009F40000F0FAF800230393074B0121E41A01A83D
:100A04000193029400F0FAF804B010BD000007202E
:100A140000000020A84B0000D000002010B50C7A84
:100A24000B6804F01F0223F01F031A43CB68640908
:100A340023F01F03054943EA440343F00103C1F8CB
:100A44009800C1F89C20C1F8A03010BD00ED00E072
:100A540010B5074BD3F89030C3F30723013B9842FA
:100A640002D8FFF7DBFF10BD6FF01500FBE700BFF6
:100A740000ED00E02DE9F04F0F46144606464FF016
:100A840000084D4D85B0B84580F29280D6F80490A8
:100A9400B9F1000F36D0B9F11F0F40F2878019F079
:100AA4001F0F40F08380D6F800A01AF01F0F7DD1ED
:100AB400504603F08CFA834609EB0A00013803F030
:100AC40086FA834572D11BF1160F6FD05C456DDD3C
:100AD400C5F898B0D5F89C10C5F898B0D5F8A030F2
:100AE40021F01F0143F01F0AD6E900321A4499424B
:100AF40002F1FF391ED1CA4508D131465FFA8BF0A5
:100B040003F06EFA08F101080C36BCE73146C5F86B
:100B140098B0D5F89C3022F01F0203F01F03134352
:100B2400C5F89C30E0B203F05BFA10F1160F3DD02B
:100B3400441CE7E7C5F898B0D5F8A020013B23F0A2
:100B44001F0302F01F021343CA453146E0B2C5F841
:100B5400A030E8D003F044FA10F1160F26D0C5F8FF
:100B640098B0D5F89C209DF808300AF1FF3A62F35A
:100B740004038DF80830D5F8A0309DF808205B08F0
:100B840063F347128DF80820D6E90032134400932A
:100B940023F01F035344A3EB0903013023F01F0385
:100BA4006946C0B20393FFF753FFBEE76FF0150425
:100BB400204605B0BDE8F08F00ED00E00522044BAF
:100BC400C3F89420BFF34F8FBFF36F8F704700BFFC
:100BD40000ED00E0BFF35F8F0022024BC3F89420C6
:100BE400704700BF00ED00E010B5034C2278FFF71A
:100BF40041FF207010BD00BF640300202DE9F74FB2
:100C0400294D8A4606464FF00008AB46274FD0458B
:100C14001BDAD6F80490B9F1000F3FD031680846CA
:100C2400019103F0D4F90199044609EB010001385C
:100C340003F0CDF984424FF014021D4B08D002FB9F
:100C440008F36FF015024BF8032003B0BDE8F08FF2
:100C540014F1160F2C60F8D01978A142F5DD02FBCF
:100C640008B0C7F89840C7F89840D7F89C4000F1FE
:100C74000801007B64F304000871D7F8A0000C7924
:100C8400400860F347140C71D7F89C1021F01F0141
:100C94006960D7F8A01021F01F01296108F101084B
:100CA40014350C36B3E700BF1402002000ED00E059
:100CB40064030020F0B54149414CD1F890302568D7
:100CC400C3F307239D4287B075D80020FFF782FF46
:100CD4003C4BC1F8C030854216D13B4C01A825706D
:100CE400FFF78EFB00250646384FAE4213D1002095
:100CF40023783249D1F89020C2F30722934254DB7F
:100D0400FFF75CFF00204EE0616801EB0011FFF784
:100D140085FE0130DFE70199280101EB0513DA684C
:100D24003A40B2F5001F22D0B2F5800F2CD0B2F5B4
:100D3400801F36D15A689B680958013B22F01F0076
:100D440003440120844623F01F0340EA4C10CDE9FC
:100D540002218DF8100002A920780593FFF778FE90
:100D640000281EDB2378013501332370BDE75A6860
:100D74009B680958013B22F01F0003444FF0020C0A
:100D8400012023F01F03E0E75A689B680958013BE0
:100D940022F01F0003444FF0000C062023F01F0331
:100DA400D3E76FF0150007B0F0BDC1F89830C1F873
:100DB400A00001339EE74FF0FF30F4E700ED00E0C0
:100DC400B44B0000AAFF4400640300200000F0FFBD
:100DD40008B5024B1B689847002008BD2802002074
:100DE400034B044A1860937843F0020393707047EE
:100DF400280200200400002008B50649064821F016
:100E04000701C1F1005202F5E02202F08AFF00203E
:100E140008BD00BFB71000202C02002007B50DF15B
:100E2400070003F080FA114B98421CD14FF4806202
:100E34000F4B1049C3F8B8254FF40062C3F83C25A2
:100E44009DF8070003F063FA0B499DF8070003F0CF
:100E540059FA01209DF80730984001F075F90020F7
:100E640003B05DF804FB6FF00B00F9E70000AD0B75
:100E740000A002502CA0025028A10250054B03EB05
:100E84008000D0F8003223F0E04343F04053C0F830
:100E94000032704700258450012208B50A4B0B49E3
:100EA400C3F8002502230020C1F8D036FFF7E6FF7F
:100EB4001046FFF7E3FFC1F80427C1F80429C1F87D
:100EC400002B002008BD00BF00100050004000505F
:100ED400052370B5144D154E2C780134B4FBF3F38F
:100EE40003EB8303E41A03F006FA114A137823B1DF
:100EF40056F82430C01A072814D94FF05023D3F8D9
:100F0400141141B10021C3F81411D3F814312C7019
:100F14000CB9012313702C7803F0EDF946F8240082
:100F2400012070BD0020FCE7660300203802002089
:100F34006503002048B1054B054A1B68B3FBF2F377
:100F44005843044B43F00103184770473000002016
:100F540040420F00A04B000000F0D8BF084B70B512
:100F6400C31A0D4607499B100446594340220648BC
:100F740003F070F82B4601462046BDE87040184740
:100F840060020020B76DDBB624490000402373B52E
:100F94000B4C0093041B0B460D460A49A4106143F5
:100FA4000646094A094803F082F8011E05DA30466C
:100FB4002B4602B0BDE87040184702B070BD00BFB8
:100FC40060020020B76DDBB61F4100002449000019
:100FD4002DE9F8430022012106460520FFF736FCDF
:100FE400114801F0B7F8114B984219D101F0C2F839
:100FF40000244FF01C090C27DFF834803569414682
:1010040009FB045002F044FF002807DB012307FB1F
:1010140004551C44042CAB67F0D10020BDE8F883D0
:101024006FF00400FAE700BF6D1000000000AD0B84
:10103400E04B000001460C2300224B4370B50848E6
:10104400C41878331844D4E91C56226702F0EFFF21
:101054002DB132462B46BDE870400248184770BD9A
:101064006002002024490000062812D8DFE800F0BE
:10107400040F1111110D0B00064B986F10F00700AF
:1010840007D1FFF7D7BF0220FBE70320F9E70120D0
:10109400F7E770476002002008B54FF02003EFF334
:1010A400118183F31288BFF36F8F124A136843F0E0
:1010B40002001060DA0708D481F31188BFF36F8F40
:1010C400BDE80840012001F06DB84FF05023D3F87B
:1010D4000C24D3F80C34DB07EED5074802F0A7FF45
:1010E40081F31188BFF36F8FBDE808400020FFF73C
:1010F400A1BF00BF00030020D80200201FB50022BA
:101104000123CDE902236B46084ACDF800D0CDF87F
:1011140004D002F0FBFF002805DB4FF480420023DB
:10112400684602F081F905B05DF804FB5541000002
:1011340010B54FF02003EFF3118483F31288BFF34B
:101144006F8F074A136823F00201DB07116002D492
:10115400012003F09BF984F31188BFF36F8F10BD56
:10116400000300202DE9F041012207463749D1E868
:10117400EF3FC1E8E02F0028F9D133B934493548AD
:101184004B60CB608A6002F096FE7B1E012B2BD84D
:10119400012F07D14FF05023D3F81C3403F003037D
:1011A400022B21D003F014FA0546F8B92A4B1B7818
:1011B400E3B14FF0502302220646C3F808234FF050
:1011C4005024DFF89880D4F81824D4F81834D203C3
:1011D40016D503F00303022B01D0012F10D175B3F0
:1011E40086F31188BFF36F8FBDE8F0814FF02003C1
:1011F400EFF3118683F31288BFF36F8F0125DEE7C7
:10120400C5B13046FFF7B4FBD4F81835DBB2012B77
:10121400D9D1D4F80421002AD5D00022C4F804215D
:10122400D4F804210222C4F818252022C8F8802109
:10123400A360C8E70021212002F0AEF8E4E74FF0F4
:1012440050230222C3F80423CEE700BF5C0200202F
:101254004C0200207C0200206903002000E100E031
:1012640008B5074803F099F938B10648FFF7B8FD07
:101274000448FEF797FF002008BD6FF01200FBE75B
:10128400604900008D1200000A2838B50446074D55
:1012940004D1AB680D2128465B689847AB680348C6
:1012A4005B68E1B29847204638BD00BF6049000042
:1012B400F0B5406801F01F04057B87B044EA45148B
:1012C4000569002D63D0B2F5001F00F1100506D1A9
:1012D4002146284603F05AF9002007B0F0BD002744
:1012E400B2F5800F01AE0197776039D1B3F1007F79
:1012F40014BF052304238DF804300023CDE90463CF
:101304000393836823FA01F111F001011AD1B2F1B8
:10131400A07F17D104F01F03620903F180032AD0D0
:10132400012A3AD11E4A52F82330DB070AD40DF1C0
:10133400030632462146284601F058FA194B9842D2
:101344001BD002962146284603AA01F00BF9164B3E
:1013540098421FD101222146284601F0ADFABBE78D
:10136400B3F1C06F05D0B3F1007F14BF0123022392
:10137400C1E70323BFE70D4AD5E73146284601F00C
:1013840095FA094B9842DCD06FF00B00A5E76FF09B
:101394008500A2E76FF015009FE751F82330FFDEC8
:1013A400002884500400AD0B0000AD0B00258450D0
:1013B40038B545682B69B3B11035284601F066FA93
:1013C400044680B90146284601F02AFA084B98429F
:1013D4000BD122462846074901F002FA224605218C
:1013E4000D20FFF733FA002038BD6FF00400FBE74F
:1013F4000000AD0BFD1300004209034670B502D096
:10140400012A17D070BD0D4E326951680029F9D0F8
:10141400012503F01F030C689D400029F2D08A685F
:101424002A4002D030464B6898472CB123682146A5
:101434001C46F2E7024EE7E72346F8E74C49000072
:10144400384900002DE9F04340F206354668D006DD
:1014540048BF0320337B02EA050558BFC2F340109E
:1014640087B001F01F07B5F5837F144647EA431799
:101474008DF8030043D00FD8062D18D007D8B5B186
:10148400022D3ED06FF0150007B0BDE8F083B5F52E
:10149400807FF7D101250AE040F20222954232D042
:1014A400B5F5407F31D0B5F5007FEBD1022522039D
:1014B4002DD5012372688B409360326982BB07F09B
:1014C4001F037F092AD0012F77D13E4A02EB830202
:1014D40084F48033D2F80012C3F30043C4F34044CD
:1014E40044EA430421F4706144EA800421F00F01CA
:1014F40044EA05230B43C2F800320020C4E7072561
:10150400D5E70425D3E70525D1E70325CFE7630312
:1015140041BF012372688B40D360CEE72A4AD5E7E6
:101524001036394630460DF1020201F05FF914F429
:10153400403F80460CD13946304603F025F8234B12
:101544009845DAD130469DF8021001F0A9F9D4E7A4
:101554004FF0000901AB3946304603AACDE90439FE
:10156400CDE90199CDF80C9000F0FCFF174B98429F
:1015740088D114F4003315D09DF8033084F48034FA
:10158400C4F300448DF80E3039464B46304603AA66
:101594008DF80C508DF80D4001F0A0F80B4B9842DB
:1015A400CDD06FE7CDE9043339460DF1030330465E
:1015B40003AA039300F0D6FFF0E7803352F82330F8
:1015C400FFDE00BF00288450002584500000AD0BCE
:1015D400036803F01F025B09026004D0012B034877
:1015E40018BF002070470248704700BF002884508D
:1015F400002584502DE9F04F15468246DFF894818A
:10160400DFF8949185B000EB8101514503D10020AE
:1016140005B0BDE8F08FDAF80030C3F34322082A9E
:1016240003F07F0400F2B0807F2C4FEA134308BF1D
:101634004FF0FF3418F80270222B00F2A880DFE884
:1016440003F0122128412B3141A6A6A6A64975A66E
:10165400A6A6A6A6A6A6A6A678838689A6A6A68CCE
:101664009295989B9E00C5F80C45601C0ED00126EF
:1016740003A80394FFF7ACFF039B06FA03F383600C
:10168400B34630E0601CC5F814457BD10AF1040A66
:10169400BBE7C5F80845E8E7621CC5F80845F5D07E
:1016A400002604E0631CC5F80C45EFD001264FF07A
:1016B400010B03A80394FFF78BFF039B0BFA03F3BF
:1016C400C36010E0C5F81045631CDFD000264FF05E
:1016D400000B08E0C5F80845002FF5D1671CD5D0EC
:1016E40000260627B346DAF8003003A803F40052B4
:1016F400002A1CBF01264FF0000B01930394FFF74F
:1017040067FF039A019B00EB8200D0F80022C3F329
:10171400C1143B0243EA840343EA0B0302EA0902CD
:10172400134343EA4603C0F80032AFE7C5F80C455B
:10173400D2E7C5F86045661CDAF80030A6D0C3F3DA
:101744008033002BB2D092E7C5F86445F3E7C5F8BF
:101754006845F0E7C5F86C45EDE7C5F82445621C1B
:1017640094D00126B3E7C5F828457EE7C5F830458F
:10177400F5E7C5F83445F2E7C5F83845EFE7C5F8AD
:101784003C45ECE700267BE76FF0150040E76FF07F
:1017940085003DE7214D0000F0F0FCFF2DE9F74303
:1017A40006464FF00008002201210820FFF74EF8FA
:1017B4000820FFF72FF8776835693C684146C4F87C
:1017C40000852E60D7F80C9001AA484602F010FD5F
:1017D40000283FDB019BD9F8002019791868FFF72E
:1017E40009FF002836DB6B7AD6F810C0012B03D032
:1017F400032B2DD14FF01008AB7A032B28D195F889
:101804000BE0BEF1000F02D0BEF1010F20D12A7A05
:10181400012A22D0022A24D0D2B910466B687168FA
:10182400B3F5164F096800F0BA803AD8B3F5165FDD
:1018340000F0B88020D8B3F5966F00F0B58012D8C8
:10184400B3F5967F00F0B380B3F5167F00F0B28055
:101854006FF0850003B0BDE8F0834FF480700E2272
:10186400DCE70020FBE7B3F5166F00F0A680B3F5C4
:10187400965FEDD15D4B43E0B3F5E14F00F0A080FE
:1018840008D8B3F5615F00F09D80B3F5964FDFD1C2
:10189400574B35E047F612294B45D9D14FF4000395
:1018A4002EE0B3F5613F00F08F8015D8B3F5963F75
:1018B40000F08D800AD84DF6C0294B4500F0898090
:1018C400B3F5614FC4D14FF46B0319E0B3F5E13FB5
:1018D400BED14FF0EB7313E0B3F5612F7CD009D880
:1018E400DFF810914B457AD0B3F5E12FB0D14FF02A
:1018F400E86305E0DFF800914B45A9D14FF0805330
:10190400C1F82435736840EA0E001B6842EA0802F5
:101914001043C3F86C050CF10403D5E9010183E815
:1019240003007B68990712D505F1180000F0FAFC52
:10193400324B984256D1287E04F10C0204F5907182
:1019440002F0EAFC01202B7E984000F0FDFB082306
:10195400C4F800353B7A53B9C4F81031D4F81031C7
:101964006B69C4F834350123C4F8383523607B68C7
:1019740000209A075CBF4FF48073C4F804337B687B
:10198400DB0644BF4FF48003C4F804332B69C4F866
:1019940044350123C4F84805A360E3605AE74FF4D3
:1019A4001D03ADE7164BABE74FF49E23A8E74FF4B6
:1019B400A033A5E74FF41C33A2E74FF41D239FE7A0
:1019C400104B9DE7104B9BE74FF06C7398E70F4B60
:1019D40096E74FF4650393E74FF0706390E74FF099
:1019E40080638DE76FF0040034E700BF00B013009C
:1019F40000A04E0090D0030040420F000000AD0B49
:101A04000050270000C0750000F03A0000903A0131
:101A1400F8B504460D46076902F0DAFDB0B92E4B5D
:101A24001B789BB16426606802F010FC00BB0120A7
:101A340002F066FC013EF6D10021212001F0ACFC4D
:101A4400F0E786F31188BFF36F8FF5E74FF02003BB
:101A5400EFF3118683F31288BFF36F8F606831460A
:101A640002F0F4FB90B986F31188BFF36F8FEDE7B2
:101A74004FF02003EFF3118683F31288BFF36F8FC7
:101A84006068314602F0E2FB0028DAD03B691D7041
:101A9400626838691368C3F844050120C3F848052F
:101AA4000020C3F82001D3F82051C3F8580152682C
:101AB400D3F85801D20608D5082062681268C2F823
:101AC40000054FF48002C3F8042301229A6081F3D5
:101AD4001188BFF36F8FF8BD690300200123834091
:101AE40070B5DC430B4AD2E8EF1F01EA0405C2E8F3
:101AF400E65F002EF7D14FF4803282400648C0F8EA
:101B04000823BFF35F8FBFF36F8F0B4214BF012015
:101B1400002070BD200300200050015070B40E4915
:101B240022F07F46D1E90034D01AC31844F10004EE
:101B3400C1E90034A6F50013B3F5400F09D2074BF1
:101B44001B681A0A1B069C19054B42F10005C3E9E0
:101B5400004570BC01F066BDE000002024030020B5
:101B6400E8000020D9B101230D4A8340D2E8EFCF29
:101B74004CEA030CC2E8E1CF0029F7D14FF48033DB
:101B8400084A8340C2F80433074BD3E8AF3FC3404D
:101B9400DB0742BF4FF40012044BC3F80021704727
:101BA40020030020005001501C03002000E100E04D
:101BB4000D4B1868010A0006BFF35F8F0B4BD3F877
:101BC4000435181841F10001B3F5801F0AD2084BFF
:101BD400D3E90023904271EB030303D210F1807028
:101BE40041F10001704700BF240300200050015060
:101BF400E80000202DE9F04F85B016461F46044644
:101C04009DF840A0FFF76AFF0190FFF7D1FFB042B3
:101C140071EB070352D23B4B301A67EB0101984238
:101C240071F100014DD2384B03EB0413D3E90223C5
:101C34009F4208BF964258D04FF48038334908FA7F
:101C440004F8204626F07F4BC1F8488302F047FB96
:101C54004FF00309584604F15005AD00ADB205F14B
:101C6400502504F5A87305F580350293029A20F0F7
:101C74007F4341F82230C1F84483D1F80435244A23
:101C8400C01A033820F07F4090422ED9286868B1EA
:101C9400D1F80435A3EB0B0020F07F40B0F5000F22
:101CA400039322D9204602F01AFB039BBAF1000FDA
:101CB40007D109EB030009F10109D7E7BAF1000FD5
:101CC40009D06FF0150520460199FFF74BFF284610
:101CD40005B0BDE8F08F01230E4AA340D2E8EF0F10
:101CE4001843C2E8E10F0029F8D107490E982301EF
:101CF400C8500F9B01EB04120025C2E90267536030
:101D0400E1E700BF01008000D00000200050015036
:101D1400FDFF7F001C0300207FB500254FF0FF303E
:101D24004FF0FF31194C1A4B0226C4F80833C4F89B
:101D34004833184BC4F80855C3E902014FF4803303
:101D44004FF40012C4F80433134B0121C4F80463A4
:101D54001520C3F880212A46FEF778FD1520FEF7EA
:101D640059FD01230D4AA360236013600C4B0D4AF7
:101D7400009328460023CDE90155FFF73BFF304689
:101D8400FFF7F0F9284604B070BD00BF00500150C1
:101D940003000F00D000002000E100E02003002039
:101DA400211B0000FFFF7F002DE9F7432E4BD3F8E2
:101DB400042390070BD5D3F8042142B10022C3F8C1
:101DC40004212A4AD3F80431136801331360264AE4
:101DD400D2F80433D90327D5254BD3E8EF1F21F0DC
:101DE4000100C3E8E40F002CF7D1CB0702D4D2F8EA
:101DF4004031CBB100251C4CC4F84051D4F84031DB
:101E0400FFF7D6FE4FF02003EFF3118283F312881D
:101E1400BFF36F8F174BD3E90267B042B94106D2C3
:101E240082F31188BFF36F8F03B0BDE8F0834FF0E6
:101E3400FF38D3E900104FF0FF391D60C3E9028970
:101E44004FF48033C4F84833C4F84051D4F84031D7
:101E540082F31188BFF36F8F0029E5D000903246DA
:101E64003B4628468847DFE7005001502403002002
:101E74001C030020D000002030B5431C124C85B058
:101E840005D08442A8BF0446012CB8BF0124FFF743
:101E94008FFE0E4B0C4DD3E90013401AB0F5000F22
:101EA4000FD22218AA4228BF2A46002052180849F5
:101EB400CDE90100009143F10003FFF79BFE05B05B
:101EC40030BD2A46F1E700BFFFFF7F00E00000209D
:101ED400211B000008B5FFF76BFE024B1B68C01AFC
:101EE40008BD00BFE00000204FF47F03D3F8302189
:101EF400D3F83431072A05D1023B032B02D8024A16
:101F0400D05C7047002070473C4D000008B5FFF7D7
:101F1400EBFF58B1644BD3F8202A3AB90D21C3F82A
:101F2400201A0121C3F81C19C3F81C290022D3006C
:101F340003F57F03D3F80013013107D0D3F800135E
:101F44000132D3F80433202A0B60F0D1FFF7CCFF21
:101F5400002840F0A080FFF7C7FF40B1534B544A1C
:101F6400C3F830254FF050230122C3F858254FF40D
:101F74007F03D3F83021D3F83431072A09D1023B47
:101F8400032B06D84B4AD35C1BB100224A4BC3F83F
:101F94004C25FFF7A9FF50B14FF05023D3F800248C
:101FA400D10742BF0022C3F81421C3F818214FF40B
:101FB4007F03D3F83021D3F83431072A09D14FF005
:101FC4005023D3F80024D20744BF6FF00102C3F8B2
:101FD4000024FFF789FF18B16522334BC3F80C279F
:101FE4004FF47F03D3F83021D3F83431072A16D1C4
:101FF400314BD3F82034002B11DA4FF05023032255
:10200400C3F8182501229A60D3F80421002AFBD0D2
:102014000022C3F804210122DA60C3F818254FF422
:102024007F03D3F83021D3F83431072A23D1023B7C
:10203400032B02D8214AD35CEBB17E221A4B1B49F5
:10204400C3F80C27C3F83C297F231D4AC2F8183172
:102054000023C1F8043EC1F8083E01F54821C1F847
:102064001031C2F82431C2F82C3102F5FF1202F506
:102074008052C2F8A032134AD2F88C3043F4406341
:10208400C2F88C30104A114B1168C3F84415D26958
:10209400C3F84C2508BD2922034BC3F80C2703229F
:1020A400C3F83C2757E700BF00400050009003509E
:1020B4004400EFBE384D000000200350344D0000B2
:1020C4000020005000ED00E00080FF0000600050A0
:1020D40030B50468ACB1B4FA84F30122C3F11F0330
:1020E400DBB29A4024EA0202D0E8EF5FA54204D1B1
:1020F400C0E8EC2FBCF1000FF6D1EAD102480B7016
:1021040030BD0248FCE700BF0000AD0B0200AD0B80
:1021140010B50368CB40DB0710D401238B40026861
:1021240043EA0201D0E8EF4F944204D1C0E8EC1F27
:10213400BCF1000FF6D1F2D1014810BD0148FCE713
:102144000000AD0B0400AD0B014BC3F80405704750
:1021540000700150044B1A7922B9012218601A71D7
:102164000248704702487047280300200000AD0B66
:102174000C00AD0B08B50A4B1B6833B10520FEF704
:1021840057FB10B90520FEF745FB4FF05023012201
:10219400C3F81825C3F81425C3F8802508BD00BF6B
:1021A4002803002010B5032845D8DFE800F0180202
:1021B400554F00224FF480730121002003F1502376
:1021C40018601C68012402F150221460284A126825
:1021D400002A47D04FF05023C3F804132BE04FF0EC
:1021E4005023D3F81814D3F81824C90312D502F0D5
:1021F4000303022B05D0012B02D0002002F095F836
:1022040001234FF050220221C2F8183508224FF45E
:102214008273D2E7D3F81424D207F1D5D3F81C245F
:1022240002F00302013A012AE7D8114A12681AB1EE
:102234000222C3F8042310BDD3F80421002AFBD0E2
:102244000022C3F80421D3F80431F4E718224FF430
:1022540090734FF48071B0E720224FF492734FF4DF
:102264000071AAE71A68002AFCD018601B68E2E72C
:10227400280300204FF0502310B5D3F8002152B1A9
:102284000020C3F80001D3F800210122C3F8082379
:10229400234B1B6898474FF05023D3F8042182B195
:1022A4000022C3F80421D3F80421D3F81824D3F866
:1022B4001824022102F00302012A28D1C3F81815B8
:1022C4009A604FF05023D3F8202162B10022C3F862
:1022D4002021D3F820214FF48072C3F80823104B37
:1022E40005201B6898474FF05023D3F82421AAB146
:1022F4000022C3F82421D3F824214FF40072C3F838
:102304000823074B0620BDE810401B681847C3F894
:102314000813034B01201B689847D2E710BD00BF88
:102324002803002001460148FFF7D2BE34000020F4
:10233400036803F01F025B09026004D0012B034809
:1023440018BF002070470248704700BF002884501F
:1023540000258450034A4309D35C00F01F0018444D
:10236400C0B27047404D000070B50546FFF7F2FF5C
:102374000C4C083034F810300E46DA0508D5C3F397
:10238400432304EBC302284654F833305268984779
:10239400A3682BB131462846E268BDE8704018476F
:1023A40070BD00BF3800002008B5FFF7D3FF034B12
:1023B400083033F81000400B08BD00BF380000207F
:1023C40008B5FFF7C7FF034B083033F81000C0F31C
:1023D400400008BD3800002008B5FFF7BBFF034BE1
:1023E400083033F81000C0F3401008BD3800002056
:1023F400034611F0010010B5CCB20BD1A207C4F30F
:1024040040000DD5074A106A58601062003818BFA2
:10241400012005E004490A6A1A600A62002AEDD024
:1024240010BD00BF002884500025845010B5FFF76C
:1024340091FF124A083032F81030D9051CD5C3F385
:10244400432123F4F85322F81030002002F10E0443
:1024540034F8023F13F4807F03D0C3F3432399423B
:102464000AD001303028F3D1002342F83130044837
:10247400BDE81040FFF74CBE10BD00BF380000207F
:10248400B0000020F0B505460020012604460746AA
:102494008C420BD1114BD3F87C2132B10022C3F80A
:1024A4007C21D3F87C3140F00040F0BDE3B29B00C6
:1024B40003F580729B0806FA03F31D420BD002F168
:1024C400A04202F55042D2F800C0BCF1000F02D085
:1024D4001760126818430134DAE700BF00D00050D7
:1024E400F7B506460846FFF735FF1A4F00F1080511
:1024F40037F815300C46DB072AD5304602F020F8B1
:102504002046FFF769FF58B12046FFF74DFF002230
:10251400316800B201EB8003C3F81025C3F810251D
:102524002046FFF783FF002301A827F81530019404
:10253400FFF7FEFE019B00EB8300D0F80022064B60
:10254400134043F00203C0F80032044803B0F0BD66
:102554000348FBE738000020F0F0FCFF0000AD0B5F
:102564000400AD0B2DE9F0431646804685B00846BD
:10257400FFF7F0FE0D463168044609B32846FFF71D
:102584001FFF18B12846FFF727FF10BB00230DF1EA
:102594000F02CDE900338DF80E308DF80F30284648
:1025A4000B460DF10E0101F073FF484A04F10801D6
:1025B40032F8113023F0020343F0010322F8113002
:1025C40073687BB328461F785968FFF7F9FE10B18A
:1025D400E9B13F4829E03D4A04F1080032F81030DF
:1025E40023F02003DB04DB0C22F8103079B1032F35
:1025F400EFD87168D1F804E0D8F800109EF800C054
:1026040001EB8C01A7B9C1F81075C1F810752F4AF8
:1026140004F1080132F8113023F01C0343EA870364
:1026240022F81130B3683BBB2A4805B0BDE8F083FB
:10263400D1F810E543EA4C332EF0030EC1F810E54F
:10264400D8F8001043F0200301EB8C0EDEF81015CF
:1026540022F8103021F44F3121F44071CEF81015D6
:102664002902DEF8108501F47C5141EA074141EA70
:102674000801CEF81015CAE72846D3E90067FFF72A
:10268400D5FE002ED0D0114DD5E90023964203D1BA
:102694009F4201D1002209E00F480DF10F01FFF71D
:1026A40017FD0C4B9842C0D19DF80F2005EBC203D7
:1026B40008345F6035F8143045F8326043EA422349
:1026C40043F4807325F81430AEE700BF38000020CF
:1026D4000400AD0B0000AD0BB00000202DE9F04369
:1026E4000C46804685B0204611461D46FFF732FE53
:1026F400064629B32046FFF763FE18B92046FFF7C4
:102704006BFE18BB334F06F1080937F8193013F084
:102714001C0F02D04B78012B18D001238DF80F30F9
:1027240000234A1CCDE9001320468B1C0DF10F0138
:1027340001F0AEFE37F8193043F0030327F81930DF
:10274400002D44D02046FFF73BFE18B9224805B0BF
:10275400BDE8F083002295F800C0D8F800301D4F82
:1027640003EB8C03C3F81025C3F8102506F1080207
:1027740037F812104FEA8C0E21F02001C904C90C5D
:1027840027F812106E7816B3D8F80000AD787044AC
:10279400D0F81035360423F4991323F4F853C0F811
:1027A4001035230203F47C5306F440362D05D0F88B
:1027B40010E5334305F480152B4341EA4C3143EAD9
:1027C4000E0341F02001C0F8103527F81210034819
:1027D400BDE700BF380000200400AD0B0000AD0BC6
:1027E400014BC3E9021270473800002010B50846B7
:1027F4001446FFF7F1FD50B10846FFF7ABFD054B5A
:10280400083033F8103004485B0B237010BD0348C4
:10281400FCE700BF380000200000AD0B0400AD0B46
:1028240070B5174E054696F880403CBB21466022A1
:1028340006F1100002F042F821462D68306F8842FC
:1028440012D1002345F30730C5F87C31D5F87C312B
:10285400FDF7E0FF4FF00043C5F8043301230948B6
:1028640086F88030B36770BDCBB29B0003F58072ED
:102874007C2B04BFAC50AB580131E0E70248F2E7CF
:10288400380000200000AD0B0C00AD0B034B93F897
:102894008000003818BF0120704700BF38000020B6
:1028A4000148FFF735BC00BFAC0000200148FFF72A
:1028B4000FBC00BFAC00002073B5054608460C46AB
:1028C4001646FFF789FD00B30846FFF779FD014678
:1028D400D8B92046FFF768FD04B2A400034628686F
:1028E40004F580728150296882582144D1F810255A
:1028F40042F00102C1F810252EB10122296802FA22
:1029040003F3C1F8043302B070BD2046FFF722FD83
:102914000E4B083033F81030C3F38203042B11D06C
:10292400052B11D001A80194FFF702FD019A036958
:10293400D34003F00103991C204602B0BDE8704067
:1029440001F0EFBD0321F7E70221F5E7380000208D
:102954002DE9F04F684BDFF8A481D3F80403D8F8CD
:102964007010C0B289B040F00040FFF78BFD051E27
:102974002FDAC24600235AF87C1F06A8CDE9063395
:10298400FFF736FD4FF0000B5D4B0DF11809019375
:10299400019A12F8013B0192DA081AF8022003F0B6
:1029A400070322FA03F3DA071CD409F10409BBF183
:1029B400000F14D0D8F870104FF00040FFF762FDFC
:1029C400D8F87C1006A8FFF713FD0028DAD125F00B
:1029D40000450124002D76D109B0BDE8F08F4FF0F9
:1029E400010BD5E7474B5B440293D9F8001000294B
:1029F400DBD091FAA1F1B1FA81F1029B1C7841EA92
:102A040044142046FFF7A6FC083038F81070C808B4
:102A1400BB080393012319F8002001F0070103FA0E
:102A240001F122EA010209F8002005A80594FFF744
:102A34007FFC059A039B803250F82220C7F382065C
:102A44005B073746C2F3014222D520463946D6B247
:102A5400FFF78AFC05A80594FFF76AFC059B803301
:102A640050F82330C3F301439E4207D1002120468E
:102A740001F057FD3146204601F053FD05A80594A9
:102A8400FFF756FC0122059B02FA03F30362ACE74D
:102A9400022A0CD10321204601F043FD06F0050370
:102AA400012BEBD139462046FFF75EFCE6E7022115
:102AB4002046039201F035FD032EF3D0039A032A36
:102AC400DCD1022EEDE795FAA5F3B3FA83F304FA09
:102AD40003F29B0003F1A04303F55043D3F8100520
:102AE400D3F81015C0F30520C1F3014125EA02050E
:102AF400FFF73AFC6EE700BF00D00050380000201A
:102B0400504D0000504D000038B54FF02003EFF356
:102B1400118583F31288BFF36F8F064B9C6801F015
:102B240050FD85F31188BFF36F8F2046BDE8384010
:102B3400FDF7FEBD34030020104B70B553F8204060
:102B4400013053F82060A64200D870BDD4E90035A6
:102B540095B153B12846984738B10028B8BF4042D0
:102B6400FF28A8BFFF20EB681870EA68537843F089
:102B7400010353700834E6E79847FBE7BC4C0000B8
:102B8400012270B5294B032086B01A70FFF7D4FFD9
:102B940000F0CCFD0420FFF7CFFF254C254D264641
:102BA400AE4204F1300410D300F03AFB204C224E24
:102BB400AC4226D300F048FBFDF7CAFA1F4A137B48
:102BC40023F00103137306B070BD54F80C3C059355
:102BD40054F8103C049354F8143C039354F8183CF0
:102BE400029354F81C3C019354F8203C009354E99C
:102BF4000A2354E90C0100F0DBF854F8303C5E651C
:102C0400CDE7D4E90A23B3F1FF3F08BFB2F1FF3F98
:102C140005D052EA0301206803D101F0DFFC30340F
:102C2400C6E73146183000F087FCF8E76903002056
:102C34009C4B00009C4B0000EB4600007001002000
:102C440008B50348034A0021121A01F0BDFC08BD6F
:102C5400D00000206C0300200023012270B586B050
:102C6400CDE904230F220193CDE9023214234FF45A
:102C7400A0720446114D124E03FB0055114906EB98
:102C8400C01602FB0011104B3046009500F090F87E
:102C9400737B2C7423F0040373730C4B013403EB28
:102CA400C4236B600A4BEE60D3E8EF1F0131C3E825
:102CB400E21F002AF8D106B070BD00BF3403002023
:102CC400F0000020700B00207B4700007003002000
:102CD4003003002080B50020A6B0FFF72DFF2D4B58
:102CE40003F5006282F3088883F30A880024E02352
:102CF400294D2A4E85F82230EC772C766C76AC760A
:102D040085F820406B6A264F43F4E0236B6285F814
:102D14002340FDF7DFFCFDF709FE4FF0FF33AB6204
:102D2400EB62FDF7C7FFFDF75DFE40F20113ADF85E
:102D3400243006ABB360CDE91E44219401F02CFC91
:102D44000120FFF7F9FE0220164DFFF7F5FE00F013
:102D540097FA154B75610593012314494FF480626A
:102D6400CDE9034328463B46CDE90144009400F0F5
:102D74001FF806466A7B284622F004026A7301F0B3
:102D840064FC2046FFF768FF3A4631462846FDF7C3
:102D9400B3FD00BF7003002000ED00E03403002009
:102DA400852B000070010020524D0000B00C002063
:102DB4002DE9F043984685B000F15803C0E9163375
:102DC400109B002603730423073222F00705437384
:102DD4000F9B01EB05090F4683734946C0E906665C
:102DE4008660C6730446FDF715FB0E9B073020F082
:102DF4000700A066C4E9187502930D9BA9EB0009AE
:102E040001930C9B4A460093394643462046FDF7FE
:102E140057FD054B66659B6803B1DB6E4846E36668
:102E240005B0BDE8F08300BF34030020C3897F2BC5
:102E340012D80A4B1B6863B1094B90F90E201B682A
:102E44009A4209DB437BDB0606D1064BC31A18BF43
:102E5400012303F0010070470023FAE75C0300201C
:102E640058030020F00000200122044BC01A044B38
:102E7400C0105843034B1A54704700BFF0010020A0
:102E8400ABAAAAAA6A03002070B50E4B0E4C1E7C96
:102E9400054606EB460304EBC304204601F077FC29
:102EA40000220A4B28469A55FFF7C0FF48B1084B49
:102EB4002046BDE870401A680649013AD31700F06D
:102EC4003BBB70BD34030020F00100206A030020E6
:102ED4005C0300206D2E000070B506460C4801F01E
:102EE40078FC0C4D044600B9EC68AB683EB95A7BDB
:102EF400D20604D1A26912B9DA897F2A05D89C4284
:102F040002D02046FFF7C0FF23466B6170BD00BFAF
:102F14004C0300203403002070B590F90D200446C2
:102F2400002A437B06DA03F07F0301464373174804
:102F340001F047FC164A637B114663F07F03637319
:102F440051F8183FD0698B4208BF002323B9C4E964
:102F540000100460D4610CE094F90E5093F90E60F3
:102F6400B5420ED0AE420CDD5968C4E900310C60A4
:102F74005C609068031B58425841BDE87040FFF7FD
:102F8400ABBF9842E3D01B68E0E700BF4C030020CE
:102F94003403002070B490F90D30427B002B29DB00
:102FA400D30627D183692BBB134962F07F02427396
:102FB4000A4652F8184F944218BF2346CC6923B9E5
:102FC400C0E900242060C8610CE090F90E5093F928
:102FD4000E60B5420AD0AE4208DD5A68C0E900323C
:102FE40010605860002070BCFFF776BFA342E7D0A2
:102FF4001B68E4E770BC704734030020002A2DE905
:10300400F0410CBF10250825437B04461D420E46A3
:103014000AD12B43D90903F09F0211D14273082D21
:1030240016D00120FFF758FF1C4B9B68A3422ED1FA
:10303400EFF305835BBB3046BDE8F041FDF78EBB83
:1030440003F01F0301464373154801F0BAFBE6E79A
:10305400A36813B1204601F0C3FA04F1180001F08B
:1030640096FB4FF0000804F15807A56DBD42D8D077
:10307400002DD6D0284601F0B3FA05F1180001F06E
:1030840086FB2846C5F87880FFF784FFEDE786F3D2
:103094001188BFF36F8FBDE8F08100BF34030020B7
:1030A4004C03002010B590F90D200446002A437B00
:1030B40006DA03F07F0301464373064801F081FBFF
:1030C400054B9868031B58425841BDE81040FFF770
:1030D40003BF00BF4C0300203403002038B54FF079
:1030E4002003EFF3118583F31288BFF36F8F104B26
:1030F400104A9C681068A04206D1FFF7C5FE85F30C
:103104001188BFF36F8F38BD00211B7C11600A4A00
:10311400D35C002BF3D02046FFF788FE0028EED0C6
:10312400637BDB0602D12046FFF7F6FE2046E4E788
:1031340034030020540300206A030020F8B5134B25
:103144000C46DDE9067611469868114A10604FF086
:103154002000EFF3118280F31288BFF36F8F9D6814
:10316400284601F04AFAB6F1FF3F08BFB7F1FF3F26
:1031740006D03A463346074905F1180000F0DCF959
:103184002046BDE8F840FDF7E9BA00BF340300204B
:1031940054030020EB46000049B9EFF3058030B931
:1031A400054B5A699B689A4201D0FDF7D7BA81F35F
:1031B4001188BFF36F8F70473403002010B54FF0B0
:1031C4002002EFF3118482F31288BFF36F8F427BE6
:1031D400510704D484F31188BFF36F8F10BD22F01C
:1031E40004024273FFF7D6FE2146BDE810400148B1
:1031F400FFF7D2BF6B030020034648B9EFF3058203
:1032040032B9064A51699268914201D0FDF7A6BAD3
:1032140083F31188BFF36F8F704700BF340300201E
:103224004FF02003EFF3118183F31288BFF36F8F04
:10323400044B9A68D37B013BD37381F31188BFF3AA
:103244006F8F70473403002010B54FF02003EFF365
:10325400118483F31288BFF36F8F084B00209A68A0
:10326400D37B0133D373FFF737FE84F31188BFF3A5
:103274006F8FBDE8104001F053BA00BF3403002043
:10328400024B03F11802C3E90622704734030020FD
:10329400F8B54FF02003EFF3118683F31288BFF3E0
:1032A4006F8F1A4CA16804F118054B7B284603F074
:1032B4007F034B7301F085FAA3685A7B62F07F02A7
:1032C4005A73A269E169AA4208BF002222B9C3E97C
:1032D40000510B60E3610CE093F90E0092F90E705B
:1032E400B8420ED087420CDD5168C3E900210B605F
:1032F40053600120FFF7F0FD3046BDE8F840FDF7CC
:103304002DBA8A42E3D01268E0E700BF34030020FC
:1033140050EA01032DE9F04105460E4603D1FFF7BB
:10332400B7FF00202CE0831C71F1FF332ADB01F08E
:1033340044FA2C184FF02003EFF3118883F312881A
:10334400BFF36F8F114F124BB8681860FFF7AAFED6
:10335400B86810492A463346183000F0EDF8BA68C8
:103364004046537B43F010035373FDF7F7F901F024
:1033740024FA201A63EB0303012873F10003D0DB62
:10338400BDE8F0816FF00104241AD3E73403002070
:1033940054030020EB460000B1F1FF3F08BFB0F139
:1033A400FF3F08B506D10A4B986801F05EF94FF06B
:1033B400FF3008BDFFF7ACFF4FF47A7147F6FF7397
:1033C4000022C0FB0132D80B40EA4240F1E700BFC3
:1033D40034030020014B9868704700BF3403002079
:1033E40038B504464FF02003EFF3118583F31288B8
:1033F400BFF36F8F01F07BF948B10022826701F0BF
:1034040024F92946BDE838400648FFF7C5BED4E98B
:1034140002329A4218BF0133A36085F31188BFF3C7
:103424006F8F38BD6B03002013B54FF02004EFF30A
:10343400118184F31288BFF36F8F846844B1013C17
:10344400846081F31188BFF36F8F002002B010BD38
:1034540052EA030406D181F31188BFF36F8F6FF032
:103464000F00F3E7CDE9002302460248FFF766FEAA
:10347400ECE700BF6B03002008B50648064A07497D
:10348400121A01F0A3F8BDE80840054A05490648A8
:1034940001F09CB800000020CC000020A04D0000EA
:1034A40000000000A04D000000000020034B1B683A
:1034B4000BB9FEF70FBD0020704700BF600300206A
:1034C40030B570B10B4B5B6898420AD0036843B1C6
:1034D400D3E90421D0E90445121941EB0501C3E9FC
:1034E4000421D0E9003213605A600023C0E900339C
:1034F40030BD00BFBC00002010B50E4B1C689C42C0
:1035040004D1FFF7D3FF6FF0004010BDFFF7CEFFEB
:10351400002CF8D0D4E904321B1A62EBE072B3F148
:10352400004F72F10001EEDA002AACBF1846002009
:10353400EBE700BFBC000020B3F1FF3F08BFB2F1CE
:10354400FF3FF8B504461D4616465CD081604FF037
:103554002003EFF3118783F31288BFF36F8F0132D7
:1035640075F1FF3324DA6FF001032C49D1E900200F
:103574009B1A4FF0FF3262EB00009E1B60EB0500CC
:10358400012E70F1000301DA01260020C4E9046071
:10359400234ED6F800C07568B44508BF4FF0000C40
:1035A400BCF1000F0DD1C4E900652C6074601CE00F
:1035B400FFF77CFF013645F10005361845EBE07056
:1035C400E4E7DCE90420D4E90431934271EB000E12
:1035D4001ADAD21ADCF8043060EB0100CCE90420DA
:1035E400C4E900C31C60CCF804403368B34206D07D
:1035F4009C4204D1FFF780FF0021FEF73DFC87F3D6
:103604001188BFF36F8FF8BD9B1A61EB0001AC45C5
:10361400C4E90431C7D0DCF800C0C1E708020020C7
:10362400BC0000202DE9F84F4FF02003EFF3118C7C
:1036340083F31288BFF36F8FDFF8B0A0DFF8B09088
:103644000024C9F80000DAF800000025504508BF3E
:103654000020284FE046D7E90021D9F8003080B394
:10366400D0E9046C4FEAE37EB3427EEB0C0B05DA3F
:10367400F61A6CEB0E04C0E9046422E0B21841EBC4
:10368400E671C0E90445C7E90021FFF719FF88F393
:103694001188BFF36F8F836898474FF02003EFF3CF
:1036A400118883F31288BFF36F8FD9F80030DAF8EA
:1036B40000009B1B5045C446C9F80030CAD1D7E965
:1036C400002100249A1841EBE373C7E90023C9F8E9
:1036D4000040FFF711FF2146FEF7CEFB88F3118867
:1036E400BFF36F8FBDE8F84FFFF7F8BCBC000020B4
:1036F400600300200802002010B54FF02003EFF310
:10370400118483F31288BFF36F8FFFF7CFFE034654
:10371400054AD2E90001181841EBE37184F31188DA
:10372400BFF36F8F10BD00BF08020020014800F0F6
:1037340052BB00BF574D00000FB407B504AA064B97
:1037440052F8041B1868019200F008F803B05DF801
:1037540004EB04B0704700BFDC4B00002DE9F04FD0
:1037640043688DB015468046029383789A0740F1EA
:103774000D8100240E78002E00F00A81252E0BD036
:103784004B1C0393013441463046029B9847002862
:10379400C0F2F6800399EDE74E788B1C252E039337
:1037A400F0D00027B946BB46BBF11F0F38D8A6F1AD
:1037B4002003102B0AD8DFE803F02A09093009098D
:1037C400092109090928092D09091F00A6F1300357
:1037D400092B33D92A2E37D11BF0400F55F8043B5F
:1037E40040F08280002BA7BF4BF0200B9946C3F119
:1037F40000094BF0280B01E04BF0010B039B13F87D
:10380400016B0393002ECFD130E04BF0020B4BF051
:10381400040BF3E74BF0080BF0E74BF0100BEDE76C
:10382400BBF17F0F19D8A6F13003092BD2D81BF0B6
:10383400400F03D00A2101FB0737DFE70A214BF0D1
:10384400200B01FB0939D9E72E2E06D11BF0400FBE
:1038540040F09E804BF0400BD0E76C2E31D02BD83B
:10386400682E36D06A2E3CD04C2E3AD0002F46F02B
:103874002003B8BF2BF04002A3F16501BCBF0027B1
:103884001FFA82FB022901D9612B2FD107350727A3
:10389400DFF8ACA225F0070508351BF0080F66D049
:1038A4000AEB070B56465E4563D1A4EB0A0AA9EB63
:1038B400070906EB0A026FE1742E9FD07A2E9DD081
:1038C400D4E71BF0800F18BF4BF4007B4BF0800B48
:1038D40094E71BF4807F18BF4BF4007B4BF4807B90
:1038E4008CE74BF4207B89E71F4687E7A6F1630149
:1038F400122900F2F080DFE811F013004F00EE000F
:10390400EE00EE00EE004F00EE00EE00EE00EE00E2
:10391400EE00FE00E900EE00EE001B00EE00AF003A
:1039240055F8043B01270DF1180A8DF81830B4E757
:1039340055F804AB834BBAF1000F08BF9A461BF04D
:10394400400F504614BF39464FF0FF3100F047FF97
:103954000746A2E741462020029B984700280FDB38
:10396400013EB742F6D34C44B146A41B98E74E46F9
:10397400F7E7414616F8010B029B9847002892DAB4
:1039840098F8023043F0040388F802304FF0FF3413
:1039940020460DB0BDE8F08F1BF0800F34D01BF42F
:1039A400007F2CD0073525F00705AA4669685AF828
:1039B400080B2BF010050029ADB237DA404245F46C
:1039C400806561EB41010DF1180B0A235A4600F0A2
:1039D40012FFA0EB0B0301936B0662D5019B25F04C
:1039E40001019F4289B240F3A180002E00F099802A
:1039F40015F0100240F09C80BB460D4623E0AA4619
:103A04005AF8040BC117D4E7AA461BF4807F5AF86E
:103A1400041B01D10846F5E71BF4007F19BF48B227
:103A240041F3C01108B241F3C031C2E750EA0103C7
:103A3400C9D11BF0400FC6D0002FC4D12BF0110206
:103A4400BB46019795B240F2064115EA01021CBF3C
:103A54000BF1010B00222CE02BF010020A231FFAB9
:103A640082FB1BF0800C49D01BF4007115BF073595
:103A7400AA4625F007055AF8040B1EBFAA46696832
:103A84005AF8080B50EA010545D12BF016051BF036
:103A9400400FADB242D0002F40D12BF01702019756
:103AA40095B215F0100248D0019B002E42D103F1CB
:103AB400010B29075AD4EB0706D5D9456FDDA9EBCD
:103AC4000B030199CB465F185B4649E04BF0100BA2
:103AD40010237826C5E7782B04D1C6F1780343F088
:103AE4001003BEE741462520029B98470028FFF6B5
:103AF40047AF023447E608230026B2E7AA461BF480
:103B040080715AF8040BBDD01BF400711ABFC0B207
:103B1400614680B2B6E72BF0060295B20DF1180BA0
:103B240054E725F01105BB46ADB28CE70D46B8E766
:103B34003B460D4603F1020BBBE7DDF804B082E718
:103B4400984D0000914D0000CDE9043241462020FB
:103B5400029B98470028FFF613AF049B059A013394
:103B64009945F1DCA4EB0B019B46CC180AB3414602
:103B74003020029B98470028FFF602AF8EB901342B
:103B84002744391B019B994224DC1D4655BB019AED
:103B9400A9EB0B09554622441446914433E0019F96
:103BA40092E7023441463046029B98470028E7DA00
:103BB400E6E640F206410D42E2D015F0020F04F1B0
:103BC4000104414614BF2B20202015F4806F18BF38
:103BD4002D20E9E741463020029B01349847002814
:103BE400CFDACDE606AB013D4146585D029B9847CE
:103BF4000028CBDAC4E641462020029B01349847D2
:103C04000028FFF6BDAEA9EB0403002BF3DCC1E5ED
:103C14007047836800EBC101B3F5004F2CBF51F826
:103C2400220031F81200704700EBC1018068B0F542
:103C3400004F2CBF41F8223021F812307047012286
:103C440008B5FFF7E6FFD04008BD836800EBC1016B
:103C5400B3F5004F08D34B681AB143F001034B602E
:103C6400704723F00103FAE74B881AB143F00103CC
:103C74004B80704723F00103FAE753000122FFF75A
:103C8400D3BFB0F5004F34BF04230823481C0833C6
:103C9400A0EBD300B0FA80F0C0F11F0070472DE90B
:103CA400F0410D4686680446FFF7C9FFB6F5004F9C
:103CB400014601D3012832D03046FFF7E2FF04EB7E
:103CC40080010E6996B90122E36882401343E360E0
:103CD40002220D612B4629462046FFF7A5FF032249
:103CE40029462046BDE8F041FFF79EBF0222314637
:103CF4002046FFF78EFF0746034629462046FFF776
:103D040093FF0322334629462046FFF78DFF3946A9
:103D14002B462046FFF788FF02223146E1E7BDE843
:103D2400F081B2F5802F2CBF082304232DE9F04144
:103D34000026D21A8C18CD1D25F0070524F007049F
:103D4400641BE408056021462046AC60EE60FFF782
:103D540098FF421D9200013002F107074FEAD7078E
:103D64003146A2F1100205F11000B8BF324600F04E
:103D7400A5FD3A4631462846FFF77FFF33463246D3
:103D840031462846FFF750FFA4EB07082846314682
:103D94000122FFF75AFF42463946FFF76EFF3B46C2
:103DA400324639462846FFF73FFF21462846FFF7AB
:103DB40064FF4346324621462846FFF735FF214635
:103DC40028460122FFF741FF3946BDE8F041FFF7DD
:103DD40066BF002070470FB407B504A951F8040B5F
:103DE4000191FCF7C7F903B05DF804EB04B0704728
:103DF400038B13F0070305D10368002B0CBF0020CD
:103E040003207047022B05D1408BB0FA80F04009A3
:103E140080007047012B05D10368002B0CBF0020E4
:103E2400052070470020704710B50C4600B111B949
:103E34006FF0150010BD081D00F095F80028F9D1A9
:103E4400A368032BF6D9F3E72DE9F0410D460746A5
:103E54001946281D90461E4600F096F8044638B1CF
:103E64003346424629463846A446BDE8F0416047F9
:103E7400BDE8F08110B44FF02004EFF3118284F315
:103E84001288BFF36F8F416110BC0121FCF7AAB9FE
:103E940038B50C46054658B151B10B6843B14B686F
:103EA40033B11C22002100F009FD00202C6138BD33
:103EB4006FF01500FBE770B505460E46FFF7B4FF3B
:103EC400041E15DB4FF02003EFF3118283F31288F5
:103ED400BFF36F8F4FF6FF716B8B2C8B8B4204F00B
:103EE400070407D182F31188BFF36F8F6FF00A04C0
:103EF400204670BD022C0CD101336B8382F31188F0
:103F0400BFF36F8F0023224631462846FFF79CFFFC
:103F1400EEE7062C14D8DFE804F004131313041A94
:103F24000400002333606B683BB9C5E90066ACB993
:103F340002212846FCF756F9DAE71E606E60F6E7C0
:103F440082F31188BFF36F8F6FF00404D0E782F31C
:103F54001188BFF36F8F6FF08504C9E782F311886E
:103F6400BFF36F8FC4E7034658B1426802F00302FF
:103F7400012A03D0032A04D1026812B100209860F8
:103F840070476FF0150070474268034602F0030261
:103F9400032A4FF00002816014BF104600685A6083
:103FA40070477047FEF7B0BD01460068FEF7ACBD30
:103FB40008B5FCF72BFABDE80840FCF74BBA002122
:103FC4000120FFF7EFBF036E83F30B88704740E8CF
:103FD40000F313F4803FD8B208BF6FF015007047A8
:103FE40030B50C684B6885B00A894D890094013B53
:103FF40024F01F04234402F01F0242EA451223F076
:104004001F0369468DF808200393FCF721FD05B0D2
:1040140030BD08B5FCF7DCFE002008BD0C220369A6
:10402400C9B201FB0233986F00F0070070474FF0EC
:104034002003EFF3118283F31288BFF36F8F0368B9
:1040440003F0C00343F00203036082F31188BFF35B
:104054006F8F704770B5C9B203694FF02004EFF356
:10406400118584F31288BFF36F8F0C2606FB01348D
:10407400A46F14F0C00408D0A24206D085F31188BE
:10408400BFF36F8F4FF0FF3070BD012206FB013389
:104094009A6785F31188BFF36F8F436803EBC103FD
:1040A4005B6898470020EFE78022FFF7D3BFF8B59D
:1040B400069F0469C9B24FF02005EFF3118685F31A
:1040C4001288BFF36F8F0C2505FB0144A56F05F023
:1040D400070CBCF1010F0CD1A76786F31188BFF35D
:1040E4006F8FC4E91C23436853F83130984700208C
:1040F400F8BD05F0C005AF4286F31188BFF36F8F9A
:104104000CBF6FF077004FF0FF30F1E713B5802458
:104114000094FFF7CCFF02B010BD10B41C2400695A
:10412400CBB203FB0400002110BC10470320FEF7B0
:1041340039B80220FEF736B80020FEF733B8032062
:1041440000F0A4B9022000F0A1B9002000F09EB94B
:104154001046FFF745B9436800205B681B690B6094
:104164007047436802EA01005B6821EA0201986033
:104174000020D9607047436800205B6899607047ED
:10418400436800205B68D960704743685A68536885
:1041940021EA03000B4090600020D360704710B503
:1041A40003695868F8B1884219D19C680868A1422B
:1041B400586000D19860002008602AB15A680A60EB
:1041C4009A68596002B99960002010E0814206D1D2
:1041D4000868206098688142EDD19C60EBE7044652
:1041E40000680028F2D1002AE8D16FF0150010BD54
:1041F40030B543681360057A446804EBC504A342F0
:1042040002D36FF0010030BD5C798C4201D00833D9
:10421400F0E70020F7E743681B68D3F88004C3F88D
:1042240080047047436802691B68D3F8100150B1D9
:104234000020526912780A70C3F81001D3F81021D3
:1042440001221A6070474FF0FF307047026803463E
:10425400D2F8580140B95B689B0706D4D2F8200114
:10426400003818BF01207047012070474268136866
:10427400D3F80413C90518D5D3F82011A9B14FF008
:104284002000EFF3118180F31288BFF36F8FD3F80E
:10429400200130B10020C3F82001D3F8200101200F
:1042A400D86081F31188BFF36F8F5268D20615D599
:1042B4004FF02001EFF3118281F31288BFF36F8F67
:1042C400D3F8581111B10021C3F800154FF480013F
:1042D400C3F8081382F31188BFF36F8F704700226D
:1042E40000F150039B009BB203F1502303F580338C
:1042F4001A601B68704708B5FDF75AFC08BD0047F3
:1043040000F046B940F00040C1F88000704740F02A
:104314000040C1F88000704740F00040C1F88000C0
:10432400C2F880007047FDF7FDBF73B503285DD860
:10433400DFE800F0021826344FF050230222C3F8BD
:1043440008230122DA600022C3F80421D3F80431DF
:10435400002401238DF80730032847D8DFE800F054
:104364002C4865824FF050230122C3F808235A6079
:104374000022C3F80021D3F800310DF10704E8E767
:104384004FF050234FF40072C3F8082301225A62FD
:104394000022C3F82421D3F82431D9E74FF0502365
:1043A4004FF48072C3F808230122DA610022C3F8B3
:1043B4002021D3F82031CBE742F210754FF050267C
:1043C400D6F8183403F4803334B97BB10120FFF7F5
:1043D40097FF013DF4D109E0D6F8182402F0030256
:1043E40022701BB19DF807000128F0D002B070BD07
:1043F40042F210754FF05026D6F80C3403F4803393
:104404003CB9002BF2D00120FFF77AFF013DF3D134
:10441400ECE7D6F80C2402F001022270002BE5D060
:104424009DF807000128EFD0E0E742F210754FF045
:104434005026D6F85C3403F480333CB9002BD5D035
:104444000120FFF75DFF013DF3D1CFE7D6F85C24EF
:1044540002F001022270002BC8D09DF80700012849
:10446400EFD0C3E742F210754FF05026D6F854341B
:10447400DB03BBD52CB90120FFF742FF013DF5D189
:10448400B4E79DF807000128F6D0AFE7FFF74DBF6A
:10449400F7B51646DDE90847019001A81D46FDF76A
:1044A40047FF019BB6F1000C18BF4FF0010C00EB65
:1044B40083000B1E18BF0123002D43EA4C0314BFD5
:1044C4004FF00C0C4FF0000C002C43EA0C0314BF0B
:1044D4004FF4706C4FF0000C002F43EA0C0314BF30
:1044E4004FF4403C4FF0000CD0F8002243EA0C0398
:1044F40022EA030301B109780EB136787600194334
:104504000DB12D78AD0031430CB124782402294338
:104514000FB13F783F040C433C43C0F8004203B062
:10452400F0BD1FB50DF10F03019300238DF80F109B
:104534001A4619460093FFF7ABFF05B05DF804FB7C
:1045440038B5054608460C46FDF746FFB0B10846A7
:10455400FDF736FF90B90846FDF726FF01232A68C8
:104564008340C2F808332A6803B202EB8303D3F80A
:10457400102522F00302C3F8102538BD2046BDE8FB
:1045840038400021FFF7CDBFFDF7AABFFFF7D8BF22
:1045940008B1FCF7CFBC7047704740B1C368587886
:1045A40010F001001EBF1878B0FA80F0400970477F
:1045B4004FF02002EFF3118382F31288BFF36F8F61
:1045C400FEE708B5FFF7F4FF00F078B900F069B929
:1045D400EFF30580003818BF01207047FEF7EEBDE9
:1045E40010B504460146806800F0EBF8637B23F0C5
:1045F400020363730023A36010BD38B504460D465F
:10460400FEF750FD637B43F002036373E5B1A560DD
:104614002B689D4209D16B68C4E900531C606C602F
:1046240012E06A689342F6D01B68002BF3D094F929
:104634000E2093F90E108A42F3D09142F1DD5A68AC
:10464400C4E9003214605C6038BD10B54FF020033B
:10465400EFF3118483F31288BFF36F8FFEF79AFC94
:1046640084F31188BFF36F8F10BD10B50446183062
:1046740000F08DF84FF02003EFF3118183F31288DB
:10468400BFF36F8F627B12F0100204D081F31188A4
:10469400BFF36F8F10BD2046BDE81040FEF7AEBCDF
:1046A40070B504460D464FF02003EFF3118683F3F3
:1046B4001288BFF36F8F437B13F0280F0BD18368ED
:1046C4000BB1FFF78DFF637B55B903F0FB03204665
:1046D4006373FEF75FFC86F31188BFF36F8F70BDC1
:1046E40003F0EB03F3E701211838FFF7D9BF38B51E
:1046F4004FF02003EFF3118583F31288BFF36F8F1C
:1047040000F067F8044628B1FFF76AFF04F11800C7
:1047140000F03DF885F31188BFF36F8F204638BD54
:104724004FF02003EFF3118083F31288BFF36F8FF0
:10473400FEF762BD4FF02002EFF3118182F312887D
:10474400BFF36F8F027BD2070AD581F31188BFF3C1
:104754006F8F404080F311884FF0040002DF7047F0
:10476400437B1B0704D581F31188BFF36F8F704718
:104774000122FEF743BC08B54FF02002EFF311838A
:1047840082F31288BFF36F8FFCF7D6F8F4E710B505
:104794004FF02002EFF3118482F31288BFF36F8F7E
:1047A40003683BB1FEF78CFE002084F31188BFF34D
:1047B4006F8F10BD6FF01500F7E708B5FEF79CFF8B
:1047C40008BDD1E9003213605A600023C1E9003307
:1047D40070470368984214BF184600207047024689
:1047E400014410B58A42134603D01C780132002CD0
:1047F400F8D1181A10BDF0B5C3F13707044603F019
:104804001F031046FFB2082BE6B232D0102B3DD066
:104814006508A40845EAC17544EA81748A082D191B
:1048240042EB5102290941EA02716D1842EB12125E
:10483400290A41EA02616D1842EB1222290C41EA6D
:1048440002416D1842EB1242AD1842F10002EC082D
:1048540044EA4274D10804EB8402A6EB4205EDB2AB
:10486400092D0CD90134A5F10A0541F10001EDB27D
:1048740012E0E40806F0070544EA4174C90830353B
:1048840054EA010200F8015BBDD1F0BD240906F031
:104894000F0544EA01740909092D84BFED19EDB22D
:1048A400EDE70A44431E914200D1704710B511F858
:1048B400014B914203F8014FF9D110BD0244034664
:1048C400934200D1704703F8011BF9E701480068DF
:0848D4007047000010020020F3
:1048DC009D0E000000000000D50F000024490000D0
:1048EC00B51300004C490000B51300003849000016
:1048FC00A1170000604900006512000000000000D4
:10490C001D1D000000000000210E00000000000032
:08491C00FD0D00000000000089
:10492400FE4C0000EC4B00000C4C0000C4000020C6
:1049340060020020094D0000284C0000584C000083
:10494400C600002004030020154D0000404C000068
:10495400584C0000C8000020100300202A4D00001D
:104964007C4C0000B04C0000CA0000201400002061
:1049740000000000C33F000000000000C33F00002F
:1049840000000000C33F000000000000C33F00001F
:1049940000000000C33F0000792200000343000030
:1049A40000000000C33F000000000000C33F0000FF
:1049B400604900007142000000000000C33F000095
:1049C40000000000C33F000000000000C33F0000DF
:1049D40000000000C33F000055290000034300000D
:1049E40000000000C33F000000000000C33F0000BF
:1049F40000000000C33F000000000000C33F0000AF
:104A040000000000C33F000000000000C33F00009E
:104A140000000000C33F000000000000AD1D0000C6
:104A240000000000C33F000000000000C33F00007E
:104A340000000000C33F000000000000C33F00006E
:104A440000000000C33F000000000000C33F00005E
:104A540000000000C33F000000000000C33F00004E
:104A640000000000C33F000000000000C33F00003E
:104A740000000000C33F000000000000C33F00002E
:104A840000000000C33F000000000000C33F00001E
:104A940000000000C33F000000000000C33F00000E
:104AA40000000000C33F000000000000C33F0000FE
:104AB40000000000C33F000000000000C33F0000EE
:104AC40000000000C33F000000000000C33F0000DE
:104AD40000000000C33F000000000000C33F0000CE
:104AE40000000000C33F000000000000C33F0000BE
:104AF40000000000C33F000000000000C33F0000AE
:104B040000000000C33F000000000000C33F00009D
:104B140000000000C33F000000000000C33F00008D
:104B240000000000C33F000000000000C33F00007D
:104B340000000000C33F000000000000C33F00006D
:104B440000000000C33F000000000000C33F00005D
:104B540000000000C33F000000000000C33F00004D
:104B640000000000C33F000000000000C33F00003D
:104B740000000000C33F000000000000C33F00002D
:104B840000000000C33F000000000000C33F00001D
:084B940000000000C33F000017
:044B9C00FFFFFFFF19
:104BA0000338FDD87047000000000020000000001E
:104BB0000600010002000000BC4B000000000000E5
:104BC000EF4C000006000000E0FF0F000000002096
:104BD000F74C000021000000E0FF06200400002048
:104BE000910F0000610F0000000000009D10000008
:104BF000351100003D4100004F41000037410000E9
:104C00004941000031410000434100000111000012
:104C1000AD400000114100000000000021400000F4
:104C20000000000000000000FFFF0000002884508A
:104C3000000000000100000000D000500000000053
:104C4000FFFFFFFF0025845000000000000000006F
:104C500000D0005000000000491400005B4100003B
:104C6000674100007B410000854100008F4100004A
:104C7000B5120000A34100000000000000800050B9
:104C800002000000000000008C4C0000008000507A
:104C9000984C000001000000A04C0000040000003F
:104CA00014000000130002009601010095010300AA
:104CB00029420000151A00001B420000DC480000D9
:104CC000DC4800000C4900001449000024490000A1
:104CD000244900006E726635333430646B004865D9
:104CE0006C6C6F20576F726C64212025730A00462C
:104CF0004C4153485F30005352414D5F3000636C6C
:104D00006F636B4035303030006770696F40383406
:104D100032383030006770696F40383432353030A7
:104D20000000010203040506070B75617274403828
:104D300030303000000000010101000001000000DF
:104D400000203030303030303030303030303030A3
:104D500000016D61696E002A2A2A20426F6F746912
:104D60006E67205A6570687972204F5320627569AA
:104D70006C642076332E362E302D3936312D676413
:104D80006462313437643061343564202A2A2A0A57
:104D900000286E756C6C29002A666C6F61742A009D
:104DA000D73D000000000000174000000000000098
:104DB000000000000000000000C20100000103002C
:104DC00000000000680300206703002000000000CE
:104DD0000090D003FFFFFFFF000000000000000074
:104DE00000000000000000000000000000000000C3
:104DF00000000000000000000000000000000000B3
:104E000000000000000000000000000000000000A2
:104E10000000000000000000000000000000000092
:104E20000000000000000000000000000000000082
:104E30000000000000000000000000000000000072
:104E4000000000000000000008000000FF0000005B
:104E5000000000000300000000000000BC00002073
:044E6000BC00002072
:084E6400000000000000000046
:044E6C0015E015E058
:0400000300000705ED
:00000001FF
